{
  "abi": [
    {
      "inputs": [
        {
          "internalType": "address",
          "name": "_gatesAddress",
          "type": "address"
        }
      ],
      "stateMutability": "nonpayable",
      "type": "constructor"
    },
    {
      "anonymous": false,
      "inputs": [
        {
          "indexed": false,
          "internalType": "uint64",
          "name": "key",
          "type": "uint64"
        }
      ],
      "name": "keyStatus",
      "type": "event"
    },
    {
      "anonymous": false,
      "inputs": [
        {
          "indexed": false,
          "internalType": "bytes8",
          "name": "key",
          "type": "bytes8"
        }
      ],
      "name": "keyStatusBytes",
      "type": "event"
    },
    {
      "inputs": [],
      "name": "gates",
      "outputs": [
        {
          "internalType": "contract DogGates",
          "name": "",
          "type": "address"
        }
      ],
      "stateMutability": "view",
      "type": "function"
    },
    {
      "inputs": [],
      "name": "openGates",
      "outputs": [
        {
          "internalType": "uint256",
          "name": "",
          "type": "uint256"
        }
      ],
      "stateMutability": "nonpayable",
      "type": "function"
    },
    {
      "inputs": [],
      "name": "owner",
      "outputs": [
        {
          "internalType": "address",
          "name": "",
          "type": "address"
        }
      ],
      "stateMutability": "view",
      "type": "function"
    }
  ],
  "bytecode": {
    "object": "0x608060405234801561001057600080fd5b506040516102f13803806102f183398101604081905261002f9161005d565b600080546001600160a01b039092166001600160a01b0319928316179055600180549091163317905561008d565b60006020828403121561006f57600080fd5b81516001600160a01b038116811461008657600080fd5b9392505050565b6102558061009c6000396000f3fe608060405234801561001057600080fd5b50600436106100415760003560e01c806369642ed4146100465780638da5cb5b14610061578063d37367591461008c575b600080fd5b61004e61009f565b6040519081526020015b60405180910390f35b600154610074906001600160a01b031681565b6040516001600160a01b039091168152602001610058565b600054610074906001600160a01b031681565b6040513360c081901b61ffff60c01b1660208301819052600092839261ffff81169260e09190911b61ffff60e01b16918490602801604051602081830303815290604052905060ff60f81b816000815181106100fd576100fd6101a9565b60200101906001600160f81b031916908160001a90535061011d816101bf565b60005460405163181c8ef960e01b81526001600160c01b0319831660048201523360248201529196506001600160a01b03169063181c8ef9906044016020604051808303816000875af1158015610178573d6000803e3d6000fd5b505050506040513d601f19601f8201168201806040525081019061019c91906101f6565b5060059550505050505090565b634e487b7160e01b600052603260045260246000fd5b805160208201516001600160c01b031980821692919060088310156101ee5780818460080360031b1b83161693505b505050919050565b60006020828403121561020857600080fd5b8151801515811461021857600080fd5b939250505056fea264697066735822122004255ce18c1fbd3efe0e8fe0fa3223b85b2b73dddbcc6b417ecfb79eafd1035664736f6c63430008110033",
    "linkReferences": {}
  },
  "methodIdentifiers": {
    "gates()": "d3736759",
    "openGates()": "69642ed4",
    "owner()": "8da5cb5b"
  },
  "id": 21
}