{
  "abi": [
    {
      "inputs": [],
      "stateMutability": "nonpayable",
      "type": "constructor"
    },
    {
      "anonymous": false,
      "inputs": [
        {
          "indexed": true,
          "internalType": "address",
          "name": "owner",
          "type": "address"
        },
        {
          "indexed": true,
          "internalType": "address",
          "name": "approved",
          "type": "address"
        },
        {
          "indexed": true,
          "internalType": "uint256",
          "name": "tokenId",
          "type": "uint256"
        }
      ],
      "name": "Approval",
      "type": "event"
    },
    {
      "anonymous": false,
      "inputs": [
        {
          "indexed": true,
          "internalType": "address",
          "name": "owner",
          "type": "address"
        },
        {
          "indexed": true,
          "internalType": "address",
          "name": "operator",
          "type": "address"
        },
        {
          "indexed": false,
          "internalType": "bool",
          "name": "approved",
          "type": "bool"
        }
      ],
      "name": "ApprovalForAll",
      "type": "event"
    },
    {
      "anonymous": false,
      "inputs": [
        {
          "indexed": false,
          "internalType": "string",
          "name": "func",
          "type": "string"
        },
        {
          "indexed": false,
          "internalType": "uint256",
          "name": "gas",
          "type": "uint256"
        }
      ],
      "name": "Log",
      "type": "event"
    },
    {
      "anonymous": false,
      "inputs": [
        {
          "indexed": true,
          "internalType": "address",
          "name": "from",
          "type": "address"
        },
        {
          "indexed": true,
          "internalType": "address",
          "name": "to",
          "type": "address"
        },
        {
          "indexed": true,
          "internalType": "uint256",
          "name": "tokenId",
          "type": "uint256"
        }
      ],
      "name": "Transfer",
      "type": "event"
    },
    {
      "inputs": [
        {
          "internalType": "address",
          "name": "to",
          "type": "address"
        },
        {
          "internalType": "uint256",
          "name": "tokenId",
          "type": "uint256"
        }
      ],
      "name": "approve",
      "outputs": [],
      "stateMutability": "nonpayable",
      "type": "function"
    },
    {
      "inputs": [
        {
          "internalType": "address",
          "name": "owner",
          "type": "address"
        }
      ],
      "name": "balanceOf",
      "outputs": [
        {
          "internalType": "uint256",
          "name": "",
          "type": "uint256"
        }
      ],
      "stateMutability": "view",
      "type": "function"
    },
    {
      "inputs": [],
      "name": "basePrice",
      "outputs": [
        {
          "internalType": "uint256",
          "name": "",
          "type": "uint256"
        }
      ],
      "stateMutability": "view",
      "type": "function"
    },
    {
      "inputs": [
        {
          "internalType": "address payable",
          "name": "buyer",
          "type": "address"
        }
      ],
      "name": "buyItem",
      "outputs": [
        {
          "internalType": "uint256",
          "name": "",
          "type": "uint256"
        }
      ],
      "stateMutability": "payable",
      "type": "function"
    },
    {
      "inputs": [
        {
          "internalType": "uint256",
          "name": "tokenId",
          "type": "uint256"
        }
      ],
      "name": "getApproved",
      "outputs": [
        {
          "internalType": "address",
          "name": "",
          "type": "address"
        }
      ],
      "stateMutability": "view",
      "type": "function"
    },
    {
      "inputs": [
        {
          "internalType": "address",
          "name": "owner",
          "type": "address"
        },
        {
          "internalType": "address",
          "name": "operator",
          "type": "address"
        }
      ],
      "name": "isApprovedForAll",
      "outputs": [
        {
          "internalType": "bool",
          "name": "",
          "type": "bool"
        }
      ],
      "stateMutability": "view",
      "type": "function"
    },
    {
      "inputs": [],
      "name": "name",
      "outputs": [
        {
          "internalType": "string",
          "name": "",
          "type": "string"
        }
      ],
      "stateMutability": "view",
      "type": "function"
    },
    {
      "inputs": [
        {
          "internalType": "uint256",
          "name": "tokenId",
          "type": "uint256"
        }
      ],
      "name": "ownerOf",
      "outputs": [
        {
          "internalType": "address",
          "name": "",
          "type": "address"
        }
      ],
      "stateMutability": "view",
      "type": "function"
    },
    {
      "inputs": [
        {
          "internalType": "address",
          "name": "from",
          "type": "address"
        },
        {
          "internalType": "address",
          "name": "to",
          "type": "address"
        },
        {
          "internalType": "uint256",
          "name": "tokenId",
          "type": "uint256"
        }
      ],
      "name": "safeTransferFrom",
      "outputs": [],
      "stateMutability": "nonpayable",
      "type": "function"
    },
    {
      "inputs": [
        {
          "internalType": "address",
          "name": "from",
          "type": "address"
        },
        {
          "internalType": "address",
          "name": "to",
          "type": "address"
        },
        {
          "internalType": "uint256",
          "name": "tokenId",
          "type": "uint256"
        },
        {
          "internalType": "bytes",
          "name": "data",
          "type": "bytes"
        }
      ],
      "name": "safeTransferFrom",
      "outputs": [],
      "stateMutability": "nonpayable",
      "type": "function"
    },
    {
      "inputs": [
        {
          "internalType": "address payable",
          "name": "seller",
          "type": "address"
        },
        {
          "internalType": "uint256",
          "name": "tokenID",
          "type": "uint256"
        }
      ],
      "name": "sellItem",
      "outputs": [],
      "stateMutability": "nonpayable",
      "type": "function"
    },
    {
      "inputs": [
        {
          "internalType": "address",
          "name": "operator",
          "type": "address"
        },
        {
          "internalType": "bool",
          "name": "approved",
          "type": "bool"
        }
      ],
      "name": "setApprovalForAll",
      "outputs": [],
      "stateMutability": "nonpayable",
      "type": "function"
    },
    {
      "inputs": [
        {
          "internalType": "bytes4",
          "name": "interfaceId",
          "type": "bytes4"
        }
      ],
      "name": "supportsInterface",
      "outputs": [
        {
          "internalType": "bool",
          "name": "",
          "type": "bool"
        }
      ],
      "stateMutability": "view",
      "type": "function"
    },
    {
      "inputs": [],
      "name": "symbol",
      "outputs": [
        {
          "internalType": "string",
          "name": "",
          "type": "string"
        }
      ],
      "stateMutability": "view",
      "type": "function"
    },
    {
      "inputs": [
        {
          "internalType": "uint256",
          "name": "tokenId",
          "type": "uint256"
        }
      ],
      "name": "tokenURI",
      "outputs": [
        {
          "internalType": "string",
          "name": "",
          "type": "string"
        }
      ],
      "stateMutability": "view",
      "type": "function"
    },
    {
      "inputs": [
        {
          "internalType": "address",
          "name": "from",
          "type": "address"
        },
        {
          "internalType": "address",
          "name": "to",
          "type": "address"
        },
        {
          "internalType": "uint256",
          "name": "tokenId",
          "type": "uint256"
        }
      ],
      "name": "transferFrom",
      "outputs": [],
      "stateMutability": "nonpayable",
      "type": "function"
    },
    {
      "inputs": [
        {
          "internalType": "address",
          "name": "from",
          "type": "address"
        },
        {
          "internalType": "address",
          "name": "to",
          "type": "address"
        },
        {
          "internalType": "uint256",
          "name": "tokenID",
          "type": "uint256"
        }
      ],
      "name": "transferItem",
      "outputs": [],
      "stateMutability": "nonpayable",
      "type": "function"
    },
    {
      "stateMutability": "payable",
      "type": "receive"
    }
  ],
  "bytecode": {
    "object": "0x60806040523480156200001157600080fd5b506040518060400160405280600d81526020016c151a1c995954da59db58539195609a1b815250604051806040016040528060048152602001633353494760e01b81525081600090816200006691906200012e565b5060016200007582826200012e565b5050662386f26fc1000060075550620001fa565b634e487b7160e01b600052604160045260246000fd5b600181811c90821680620000b457607f821691505b602082108103620000d557634e487b7160e01b600052602260045260246000fd5b50919050565b601f8211156200012957600081815260208120601f850160051c81016020861015620001045750805b601f850160051c820191505b81811015620001255782815560010162000110565b5050505b505050565b81516001600160401b038111156200014a576200014a62000089565b62000162816200015b84546200009f565b84620000db565b602080601f8311600181146200019a5760008415620001815750858301515b600019600386901b1c1916600185901b17855562000125565b600085815260208120601f198616915b82811015620001cb57888601518255948401946001909101908401620001aa565b5085821015620001ea5787850151600019600388901b60f8161c191681555b5050505050600190811b01905550565b6116a2806200020a6000396000f3fe6080604052600436106101025760003560e01c80636352211e11610095578063b88d4fde11610064578063b88d4fde1461031d578063c7876ea41461033d578063c87b56dd14610353578063dd62b03914610373578063e985e9c51461038657600080fd5b80636352211e1461029a57806370a08231146102ba57806395d89b41146102e8578063a22cb465146102fd57600080fd5b8063096c5e1a116100d1578063096c5e1a1461021a57806323b872dd1461023a57806342842e0e1461025a5780636295c61a1461027a57600080fd5b806301ffc9a71461016957806306fdde031461019e578063081812fc146101c0578063095ea7b3146101f857600080fd5b36610164577fdd970dd9b5bfe707922155b058a407655cb18288b807e2216442bca8ad83d6b55a60405161015a91906040808252600790820152667265636569766560c81b6060820152602081019190915260800190565b60405180910390a1005b600080fd5b34801561017557600080fd5b506101896101843660046111ef565b6103a6565b60405190151581526020015b60405180910390f35b3480156101aa57600080fd5b506101b36103f8565b604051610195919061125c565b3480156101cc57600080fd5b506101e06101db36600461126f565b61048a565b6040516001600160a01b039091168152602001610195565b34801561020457600080fd5b5061021861021336600461129d565b6104b1565b005b34801561022657600080fd5b5061021861023536600461129d565b6105cb565b34801561024657600080fd5b506102186102553660046112c9565b61060b565b34801561026657600080fd5b506102186102753660046112c9565b61063c565b34801561028657600080fd5b506102186102953660046112c9565b610657565b3480156102a657600080fd5b506101e06102b536600461126f565b610672565b3480156102c657600080fd5b506102da6102d536600461130a565b6106d2565b604051908152602001610195565b3480156102f457600080fd5b506101b3610758565b34801561030957600080fd5b50610218610318366004611327565b610767565b34801561032957600080fd5b5061021861033836600461137b565b610776565b34801561034957600080fd5b506102da60075481565b34801561035f57600080fd5b506101b361036e36600461126f565b6107ae565b6102da61038136600461130a565b610822565b34801561039257600080fd5b506101896103a136600461145b565b6108da565b60006001600160e01b031982166380ac58cd60e01b14806103d757506001600160e01b03198216635b5e139f60e01b145b806103f257506301ffc9a760e01b6001600160e01b03198316145b92915050565b60606000805461040790611489565b80601f016020809104026020016040519081016040528092919081815260200182805461043390611489565b80156104805780601f1061045557610100808354040283529160200191610480565b820191906000526020600020905b81548152906001019060200180831161046357829003601f168201915b5050505050905090565b600061049582610908565b506000908152600460205260409020546001600160a01b031690565b60006104bc82610672565b9050806001600160a01b0316836001600160a01b03160361052e5760405162461bcd60e51b815260206004820152602160248201527f4552433732313a20617070726f76616c20746f2063757272656e74206f776e656044820152603960f91b60648201526084015b60405180910390fd5b336001600160a01b038216148061054a575061054a81336108da565b6105bc5760405162461bcd60e51b815260206004820152603d60248201527f4552433732313a20617070726f76652063616c6c6572206973206e6f7420746f60448201527f6b656e206f776e6572206f7220617070726f76656420666f7220616c6c0000006064820152608401610525565b6105c6838361096a565b505050565b6105d4816109d8565b6007546040516001600160a01b0384169180156108fc02916000818181858888f193505050501580156105c6573d6000803e3d6000fd5b6106153382610a7b565b6106315760405162461bcd60e51b8152600401610525906114c3565b6105c6838383610ada565b6105c683838360405180602001604052806000815250610776565b6105c683838360405180602001604052806000815250610c4b565b6000818152600260205260408120546001600160a01b0316806103f25760405162461bcd60e51b8152602060048201526018602482015277115490cdcc8c4e881a5b9d985b1a59081d1bdad95b88125160421b6044820152606401610525565b60006001600160a01b03821661073c5760405162461bcd60e51b815260206004820152602960248201527f4552433732313a2061646472657373207a65726f206973206e6f7420612076616044820152683634b21037bbb732b960b91b6064820152608401610525565b506001600160a01b031660009081526003602052604090205490565b60606001805461040790611489565b610772338383610c7e565b5050565b6107803383610a7b565b61079c5760405162461bcd60e51b8152600401610525906114c3565b6107a884848484610c4b565b50505050565b60606107b982610908565b60006107d060408051602081019091526000815290565b905060008151116107f0576040518060200160405280600081525061081b565b806107fa84610d4c565b60405160200161080b929190611510565b6040516020818303038152906040525b9392505050565b600060075434101561086b5760405162461bcd60e51b8152602060048201526012602482015271496e73756669636369656e742066756e647360701b6044820152606401610525565b610879600680546001019055565b600061088460065490565b90506108908382610ddf565b826001600160a01b03166108fc600754346108ab9190611555565b6040518115909202916000818181858888f193505050501580156108d3573d6000803e3d6000fd5b5092915050565b6001600160a01b03918216600090815260056020908152604080832093909416825291909152205460ff1690565b6000818152600260205260409020546001600160a01b03166109675760405162461bcd60e51b8152602060048201526018602482015277115490cdcc8c4e881a5b9d985b1a59081d1bdad95b88125160421b6044820152606401610525565b50565b600081815260046020526040902080546001600160a01b0319166001600160a01b038416908117909155819061099f82610672565b6001600160a01b03167f8c5be1e5ebec7d5bd14f71427d1e84f3dd0314c0f7b2291e5b200ac8c7c3b92560405160405180910390a45050565b60006109e382610672565b90506109f3816000846001610f78565b6109fc82610672565b600083815260046020908152604080832080546001600160a01b03199081169091556001600160a01b0385168085526003845282852080546000190190558785526002909352818420805490911690555192935084927fddf252ad1be2c89b69c2b068fc378daa952ba7f163c4a11628f55a4df523b3ef908390a45050565b600080610a8783610672565b9050806001600160a01b0316846001600160a01b03161480610aae5750610aae81856108da565b80610ad25750836001600160a01b0316610ac78461048a565b6001600160a01b0316145b949350505050565b826001600160a01b0316610aed82610672565b6001600160a01b031614610b135760405162461bcd60e51b815260040161052590611568565b6001600160a01b038216610b755760405162461bcd60e51b8152602060048201526024808201527f4552433732313a207472616e7366657220746f20746865207a65726f206164646044820152637265737360e01b6064820152608401610525565b610b828383836001610f78565b826001600160a01b0316610b9582610672565b6001600160a01b031614610bbb5760405162461bcd60e51b815260040161052590611568565b600081815260046020908152604080832080546001600160a01b03199081169091556001600160a01b0387811680865260038552838620805460001901905590871680865283862080546001019055868652600290945282852080549092168417909155905184937fddf252ad1be2c89b69c2b068fc378daa952ba7f163c4a11628f55a4df523b3ef91a4505050565b610c56848484610ada565b610c6284848484611000565b6107a85760405162461bcd60e51b8152600401610525906115ad565b816001600160a01b0316836001600160a01b031603610cdf5760405162461bcd60e51b815260206004820152601960248201527f4552433732313a20617070726f766520746f2063616c6c6572000000000000006044820152606401610525565b6001600160a01b03838116600081815260056020908152604080832094871680845294825291829020805460ff191686151590811790915591519182527f17307eab39ab6107e8899845ad3d59bd9653f200f220920489ca2b5937696c31910160405180910390a3505050565b60606000610d5983611101565b600101905060008167ffffffffffffffff811115610d7957610d79611365565b6040519080825280601f01601f191660200182016040528015610da3576020820181803683370190505b5090508181016020015b600019016f181899199a1a9b1b9c1cb0b131b232b360811b600a86061a8153600a8504945084610dad57509392505050565b6001600160a01b038216610e355760405162461bcd60e51b815260206004820181905260248201527f4552433732313a206d696e7420746f20746865207a65726f20616464726573736044820152606401610525565b6000818152600260205260409020546001600160a01b031615610e9a5760405162461bcd60e51b815260206004820152601c60248201527f4552433732313a20746f6b656e20616c7265616479206d696e746564000000006044820152606401610525565b610ea8600083836001610f78565b6000818152600260205260409020546001600160a01b031615610f0d5760405162461bcd60e51b815260206004820152601c60248201527f4552433732313a20746f6b656e20616c7265616479206d696e746564000000006044820152606401610525565b6001600160a01b038216600081815260036020908152604080832080546001019055848352600290915280822080546001600160a01b0319168417905551839291907fddf252ad1be2c89b69c2b068fc378daa952ba7f163c4a11628f55a4df523b3ef908290a45050565b60018111156107a8576001600160a01b03841615610fbe576001600160a01b03841660009081526003602052604081208054839290610fb8908490611555565b90915550505b6001600160a01b038316156107a8576001600160a01b03831660009081526003602052604081208054839290610ff59084906115ff565b909155505050505050565b60006001600160a01b0384163b156110f657604051630a85bd0160e11b81526001600160a01b0385169063150b7a0290611044903390899088908890600401611612565b6020604051808303816000875af192505050801561107f575060408051601f3d908101601f1916820190925261107c9181019061164f565b60015b6110dc573d8080156110ad576040519150601f19603f3d011682016040523d82523d6000602084013e6110b2565b606091505b5080516000036110d45760405162461bcd60e51b8152600401610525906115ad565b805181602001fd5b6001600160e01b031916630a85bd0160e11b149050610ad2565b506001949350505050565b60008072184f03e93ff9f4daa797ed6e38ed64bf6a1f0160401b83106111405772184f03e93ff9f4daa797ed6e38ed64bf6a1f0160401b830492506040015b6d04ee2d6d415b85acef8100000000831061116c576d04ee2d6d415b85acef8100000000830492506020015b662386f26fc10000831061118a57662386f26fc10000830492506010015b6305f5e10083106111a2576305f5e100830492506008015b61271083106111b657612710830492506004015b606483106111c8576064830492506002015b600a83106103f25760010192915050565b6001600160e01b03198116811461096757600080fd5b60006020828403121561120157600080fd5b813561081b816111d9565b60005b8381101561122757818101518382015260200161120f565b50506000910152565b6000815180845261124881602086016020860161120c565b601f01601f19169290920160200192915050565b60208152600061081b6020830184611230565b60006020828403121561128157600080fd5b5035919050565b6001600160a01b038116811461096757600080fd5b600080604083850312156112b057600080fd5b82356112bb81611288565b946020939093013593505050565b6000806000606084860312156112de57600080fd5b83356112e981611288565b925060208401356112f981611288565b929592945050506040919091013590565b60006020828403121561131c57600080fd5b813561081b81611288565b6000806040838503121561133a57600080fd5b823561134581611288565b91506020830135801515811461135a57600080fd5b809150509250929050565b634e487b7160e01b600052604160045260246000fd5b6000806000806080858703121561139157600080fd5b843561139c81611288565b935060208501356113ac81611288565b925060408501359150606085013567ffffffffffffffff808211156113d057600080fd5b818701915087601f8301126113e457600080fd5b8135818111156113f6576113f6611365565b604051601f8201601f19908116603f0116810190838211818310171561141e5761141e611365565b816040528281528a602084870101111561143757600080fd5b82602086016020830137600060208483010152809550505050505092959194509250565b6000806040838503121561146e57600080fd5b823561147981611288565b9150602083013561135a81611288565b600181811c9082168061149d57607f821691505b6020821081036114bd57634e487b7160e01b600052602260045260246000fd5b50919050565b6020808252602d908201527f4552433732313a2063616c6c6572206973206e6f7420746f6b656e206f776e6560408201526c1c881bdc88185c1c1c9bdd9959609a1b606082015260800190565b6000835161152281846020880161120c565b83519083019061153681836020880161120c565b01949350505050565b634e487b7160e01b600052601160045260246000fd5b818103818111156103f2576103f261153f565b60208082526025908201527f4552433732313a207472616e736665722066726f6d20696e636f72726563742060408201526437bbb732b960d91b606082015260800190565b60208082526032908201527f4552433732313a207472616e7366657220746f206e6f6e20455243373231526560408201527131b2b4bb32b91034b6b83632b6b2b73a32b960711b606082015260800190565b808201808211156103f2576103f261153f565b6001600160a01b038581168252841660208201526040810183905260806060820181905260009061164590830184611230565b9695505050505050565b60006020828403121561166157600080fd5b815161081b816111d956fea2646970667358221220daa9406ce9f0bc2fbcb5b2c81fad8a35b297b81d676bf49abeff31afab8f7b6964736f6c63430008110033",
    "linkReferences": {}
  },
  "methodIdentifiers": {
    "approve(address,uint256)": "095ea7b3",
    "balanceOf(address)": "70a08231",
    "basePrice()": "c7876ea4",
    "buyItem(address)": "dd62b039",
    "getApproved(uint256)": "081812fc",
    "isApprovedForAll(address,address)": "e985e9c5",
    "name()": "06fdde03",
    "ownerOf(uint256)": "6352211e",
    "safeTransferFrom(address,address,uint256)": "42842e0e",
    "safeTransferFrom(address,address,uint256,bytes)": "b88d4fde",
    "sellItem(address,uint256)": "096c5e1a",
    "setApprovalForAll(address,bool)": "a22cb465",
    "supportsInterface(bytes4)": "01ffc9a7",
    "symbol()": "95d89b41",
    "tokenURI(uint256)": "c87b56dd",
    "transferFrom(address,address,uint256)": "23b872dd",
    "transferItem(address,address,uint256)": "6295c61a"
  },
  "id": 26
}