{
  "abi": [
    {
      "inputs": [],
      "stateMutability": "nonpayable",
      "type": "constructor"
    },
    {
      "inputs": [
        {
          "components": [
            {
              "components": [
                {
                  "internalType": "uint256",
                  "name": "orderId",
                  "type": "uint256"
                },
                {
                  "internalType": "uint256",
                  "name": "newprice",
                  "type": "uint256"
                },
                {
                  "internalType": "address",
                  "name": "issuer",
                  "type": "address"
                },
                {
                  "internalType": "address",
                  "name": "user",
                  "type": "address"
                },
                {
                  "internalType": "bytes",
                  "name": "reason",
                  "type": "bytes"
                }
              ],
              "internalType": "struct Coupon",
              "name": "coupon",
              "type": "tuple"
            },
            {
              "components": [
                {
                  "internalType": "uint8",
                  "name": "v",
                  "type": "uint8"
                },
                {
                  "internalType": "bytes32[2]",
                  "name": "rs",
                  "type": "bytes32[2]"
                }
              ],
              "internalType": "struct Signature",
              "name": "signature",
              "type": "tuple"
            }
          ],
          "internalType": "struct SignedCoupon",
          "name": "scoupon",
          "type": "tuple"
        }
      ],
      "name": "verifyCoupon",
      "outputs": [],
      "stateMutability": "nonpayable",
      "type": "function"
    }
  ],
  "bytecode": {
    "object": "0x608060405234801561001057600080fd5b50600080546001600160a01b031916331790556107ff806100326000396000f3fe608060405234801561001057600080fd5b506004361061002b5760003560e01c806391c7a63c14610030575b600080fd5b61004361003e366004610351565b610045565b005b600054600160a01b900460ff161561008d5760405162461bcd60e51b815260206004820152600660248201526515195cdd195960d21b60448201526064015b60405180910390fd5b6000805460ff60a01b1916600160a01b1781556100aa8280610393565b6100b39061045e565b905060006100c936849003840160208501610534565b60008054845160405163d09ef24160e01b8152600481019190915292935090916001600160a01b039091169063d09ef24190602401606060405180830381865afa15801561011b573d6000803e3d6000fd5b505050506040513d601f19601f8201168201806040525081019061013f91906105b8565b9050600083604001518460600151838660200151876080015160405160200161016c959493929190610660565b60408051808303601f1901815290829052835160208501516331a9108f60e11b84526004840152909250906000906001600160a01b03831690636352211e90602401602060405180830381865afa1580156101cb573d6000803e3d6000fd5b505050506040513d601f19601f820116820180604052508101906101ef9190610796565b9050806001600160a01b031686604001516001600160a01b0316146102475760405162461bcd60e51b815260206004820152600e60248201526d24b73b30b634b21034b9b9bab2b960911b6044820152606401610084565b85604001516001600160a01b0316600184805190602001208760000151886020015160006002811061027b5761027b6107b3565b60200201518960200151600160028110610297576102976107b3565b6020020151604051600081526020016040526040516102d2949392919093845260ff9290921660208401526040830152606082015260800190565b6020604051602081039080840390855afa1580156102f4573d6000803e3d6000fd5b505050602060405103516001600160a01b0316146103485760405162461bcd60e51b8152602060048201526011602482015270496e76616c6964207369676e617475726560781b6044820152606401610084565b50505050505050565b60006020828403121561036357600080fd5b813567ffffffffffffffff81111561037a57600080fd5b82016080818503121561038c57600080fd5b9392505050565b60008235609e198336030181126103a957600080fd5b9190910192915050565b634e487b7160e01b600052604160045260246000fd5b60405160a0810167ffffffffffffffff811182821017156103ec576103ec6103b3565b60405290565b6040805190810167ffffffffffffffff811182821017156103ec576103ec6103b3565b604051601f8201601f1916810167ffffffffffffffff8111828210171561043e5761043e6103b3565b604052919050565b6001600160a01b038116811461045b57600080fd5b50565b600060a0823603121561047057600080fd5b6104786103c9565b8235815260208084013581830152604084013561049481610446565b604083015260608401356104a781610446565b6060830152608084013567ffffffffffffffff808211156104c757600080fd5b9085019036601f8301126104da57600080fd5b8135818111156104ec576104ec6103b3565b6104fe601f8201601f19168501610415565b9150808252368482850101111561051457600080fd5b808484018584013760009082019093019290925250608082015292915050565b60006060828403121561054657600080fd5b61054e6103f2565b823560ff8116811461055f57600080fd5b81526020603f8401851361057257600080fd5b61057a6103f2565b80606086018781111561058c57600080fd5b8387015b818110156105a75780358452928401928401610590565b505091830191909152509392505050565b6000606082840312156105ca57600080fd5b6040516060810181811067ffffffffffffffff821117156105ed576105ed6103b3565b60405282516105fb81610446565b8152602083810151908201526040928301519281019290925250919050565b6000815180845260005b8181101561064057602081850181015186830182015201610624565b506000602082860101526020601f19601f83011685010191505092915050565b610180808252600d908201526c2496103a34329034b9b9bab2b960991b6101a08201526001600160a01b038616602082015260006101c08060408401526106d3818401601c81527f6f666665722061207370656369616c20646973636f756e7420666f7200000000602082015260400190565b6001600160a01b0388166060850152905082810360808401526006815265746f2062757960d01b60208201526040810186516001600160a01b031660a0850152602087015160c0850152604087015160e085015290508281036101008401526002815261185d60f21b6020820152604081019050846101208401528281036101408401526107758160078152666265636175736560c81b602082015260400190565b905082810361016084015261078a818561061a565b98975050505050505050565b6000602082840312156107a857600080fd5b815161038c81610446565b634e487b7160e01b600052603260045260246000fdfea26469706673582212203e701199e7444784d2dd0eed9417e030da833d9eb5df02f28ca3e75908612b9064736f6c63430008110033",
    "linkReferences": {}
  },
  "methodIdentifiers": {
    "verifyCoupon(((uint256,uint256,address,address,bytes),(uint8,bytes32[2])))": "91c7a63c"
  },
  "id": 31
}