{
  "abi": [
    {
      "inputs": [],
      "stateMutability": "nonpayable",
      "type": "constructor"
    },
    {
      "anonymous": false,
      "inputs": [
        {
          "indexed": true,
          "internalType": "address",
          "name": "owner",
          "type": "address"
        },
        {
          "indexed": true,
          "internalType": "address",
          "name": "approved",
          "type": "address"
        },
        {
          "indexed": true,
          "internalType": "uint256",
          "name": "tokenId",
          "type": "uint256"
        }
      ],
      "name": "Approval",
      "type": "event"
    },
    {
      "anonymous": false,
      "inputs": [
        {
          "indexed": true,
          "internalType": "address",
          "name": "owner",
          "type": "address"
        },
        {
          "indexed": true,
          "internalType": "address",
          "name": "operator",
          "type": "address"
        },
        {
          "indexed": false,
          "internalType": "bool",
          "name": "approved",
          "type": "bool"
        }
      ],
      "name": "ApprovalForAll",
      "type": "event"
    },
    {
      "anonymous": false,
      "inputs": [
        {
          "indexed": false,
          "internalType": "string",
          "name": "func",
          "type": "string"
        },
        {
          "indexed": false,
          "internalType": "uint256",
          "name": "gas",
          "type": "uint256"
        }
      ],
      "name": "Log",
      "type": "event"
    },
    {
      "anonymous": false,
      "inputs": [
        {
          "indexed": true,
          "internalType": "address",
          "name": "from",
          "type": "address"
        },
        {
          "indexed": true,
          "internalType": "address",
          "name": "to",
          "type": "address"
        },
        {
          "indexed": true,
          "internalType": "uint256",
          "name": "tokenId",
          "type": "uint256"
        }
      ],
      "name": "Transfer",
      "type": "event"
    },
    {
      "inputs": [
        {
          "internalType": "address",
          "name": "newOwner",
          "type": "address"
        },
        {
          "internalType": "uint256[]",
          "name": "tokenIds",
          "type": "uint256[]"
        }
      ],
      "name": "airdropBatch",
      "outputs": [],
      "stateMutability": "nonpayable",
      "type": "function"
    },
    {
      "inputs": [
        {
          "internalType": "address",
          "name": "newOwner",
          "type": "address"
        },
        {
          "internalType": "uint256",
          "name": "tokenId",
          "type": "uint256"
        }
      ],
      "name": "airdropSingle",
      "outputs": [],
      "stateMutability": "nonpayable",
      "type": "function"
    },
    {
      "inputs": [
        {
          "internalType": "address",
          "name": "to",
          "type": "address"
        },
        {
          "internalType": "uint256",
          "name": "tokenId",
          "type": "uint256"
        }
      ],
      "name": "approve",
      "outputs": [],
      "stateMutability": "nonpayable",
      "type": "function"
    },
    {
      "inputs": [
        {
          "internalType": "address",
          "name": "owner",
          "type": "address"
        }
      ],
      "name": "balanceOf",
      "outputs": [
        {
          "internalType": "uint256",
          "name": "",
          "type": "uint256"
        }
      ],
      "stateMutability": "view",
      "type": "function"
    },
    {
      "inputs": [],
      "name": "basePrice",
      "outputs": [
        {
          "internalType": "uint256",
          "name": "",
          "type": "uint256"
        }
      ],
      "stateMutability": "view",
      "type": "function"
    },
    {
      "inputs": [
        {
          "internalType": "address payable",
          "name": "buyer",
          "type": "address"
        }
      ],
      "name": "buyItem",
      "outputs": [
        {
          "internalType": "uint256",
          "name": "",
          "type": "uint256"
        }
      ],
      "stateMutability": "payable",
      "type": "function"
    },
    {
      "inputs": [],
      "name": "eventLog",
      "outputs": [],
      "stateMutability": "nonpayable",
      "type": "function"
    },
    {
      "inputs": [
        {
          "internalType": "uint256",
          "name": "tokenId",
          "type": "uint256"
        }
      ],
      "name": "getApproved",
      "outputs": [
        {
          "internalType": "address",
          "name": "",
          "type": "address"
        }
      ],
      "stateMutability": "view",
      "type": "function"
    },
    {
      "inputs": [
        {
          "internalType": "address",
          "name": "owner",
          "type": "address"
        },
        {
          "internalType": "address",
          "name": "operator",
          "type": "address"
        }
      ],
      "name": "isApprovedForAll",
      "outputs": [
        {
          "internalType": "bool",
          "name": "",
          "type": "bool"
        }
      ],
      "stateMutability": "view",
      "type": "function"
    },
    {
      "inputs": [],
      "name": "name",
      "outputs": [
        {
          "internalType": "string",
          "name": "",
          "type": "string"
        }
      ],
      "stateMutability": "view",
      "type": "function"
    },
    {
      "inputs": [
        {
          "internalType": "uint256",
          "name": "tokenId",
          "type": "uint256"
        }
      ],
      "name": "ownerOf",
      "outputs": [
        {
          "internalType": "address",
          "name": "",
          "type": "address"
        }
      ],
      "stateMutability": "view",
      "type": "function"
    },
    {
      "inputs": [
        {
          "internalType": "address",
          "name": "from",
          "type": "address"
        },
        {
          "internalType": "address",
          "name": "to",
          "type": "address"
        },
        {
          "internalType": "uint256",
          "name": "tokenId",
          "type": "uint256"
        }
      ],
      "name": "safeTransferFrom",
      "outputs": [],
      "stateMutability": "nonpayable",
      "type": "function"
    },
    {
      "inputs": [
        {
          "internalType": "address",
          "name": "from",
          "type": "address"
        },
        {
          "internalType": "address",
          "name": "to",
          "type": "address"
        },
        {
          "internalType": "uint256",
          "name": "tokenId",
          "type": "uint256"
        },
        {
          "internalType": "bytes",
          "name": "data",
          "type": "bytes"
        }
      ],
      "name": "safeTransferFrom",
      "outputs": [],
      "stateMutability": "nonpayable",
      "type": "function"
    },
    {
      "inputs": [
        {
          "internalType": "address payable",
          "name": "seller",
          "type": "address"
        },
        {
          "internalType": "uint256",
          "name": "tokenID",
          "type": "uint256"
        }
      ],
      "name": "sellItem",
      "outputs": [],
      "stateMutability": "nonpayable",
      "type": "function"
    },
    {
      "inputs": [
        {
          "internalType": "address",
          "name": "operator",
          "type": "address"
        },
        {
          "internalType": "bool",
          "name": "approved",
          "type": "bool"
        }
      ],
      "name": "setApprovalForAll",
      "outputs": [],
      "stateMutability": "nonpayable",
      "type": "function"
    },
    {
      "inputs": [
        {
          "internalType": "bytes4",
          "name": "interfaceId",
          "type": "bytes4"
        }
      ],
      "name": "supportsInterface",
      "outputs": [
        {
          "internalType": "bool",
          "name": "",
          "type": "bool"
        }
      ],
      "stateMutability": "view",
      "type": "function"
    },
    {
      "inputs": [],
      "name": "symbol",
      "outputs": [
        {
          "internalType": "string",
          "name": "",
          "type": "string"
        }
      ],
      "stateMutability": "view",
      "type": "function"
    },
    {
      "inputs": [
        {
          "internalType": "uint256",
          "name": "tokenId",
          "type": "uint256"
        }
      ],
      "name": "tokenURI",
      "outputs": [
        {
          "internalType": "string",
          "name": "",
          "type": "string"
        }
      ],
      "stateMutability": "view",
      "type": "function"
    },
    {
      "inputs": [
        {
          "internalType": "address",
          "name": "from",
          "type": "address"
        },
        {
          "internalType": "address",
          "name": "to",
          "type": "address"
        },
        {
          "internalType": "uint256",
          "name": "tokenId",
          "type": "uint256"
        }
      ],
      "name": "transferFrom",
      "outputs": [],
      "stateMutability": "nonpayable",
      "type": "function"
    },
    {
      "inputs": [
        {
          "internalType": "address",
          "name": "from",
          "type": "address"
        },
        {
          "internalType": "address",
          "name": "to",
          "type": "address"
        },
        {
          "internalType": "uint256",
          "name": "tokenID",
          "type": "uint256"
        }
      ],
      "name": "transferItem",
      "outputs": [],
      "stateMutability": "nonpayable",
      "type": "function"
    },
    {
      "stateMutability": "payable",
      "type": "receive"
    }
  ],
  "bytecode": {
    "object": "0x60806040523480156200001157600080fd5b506040518060400160405280600d81526020016c151a1c995954da59db58539195609a1b815250604051806040016040528060048152602001633353494760e01b815250816000908162000066919062000140565b50600162000075828262000140565b5050662386f26fc1000060075550600880546001600160a01b031916331790556200020c565b634e487b7160e01b600052604160045260246000fd5b600181811c90821680620000c657607f821691505b602082108103620000e757634e487b7160e01b600052602260045260246000fd5b50919050565b601f8211156200013b57600081815260208120601f850160051c81016020861015620001165750805b601f850160051c820191505b81811015620001375782815560010162000122565b5050505b505050565b81516001600160401b038111156200015c576200015c6200009b565b62000174816200016d8454620000b1565b84620000ed565b602080601f831160018114620001ac5760008415620001935750858301515b600019600386901b1c1916600185901b17855562000137565b600085815260208120601f198616915b82811015620001dd57888601518255948401946001909101908401620001bc565b5085821015620001fc5787850151600019600388901b60f8161c191681555b5050505050600190811b01905550565b611869806200021c6000396000f3fe6080604052600436106101235760003560e01c806370a08231116100a0578063c7876ea411610064578063c7876ea41461039e578063c87b56dd146103b4578063dd62b039146103d4578063df69e391146103e7578063e985e9c5146103fc57600080fd5b806370a08231146102fb5780637eb70bf71461032957806395d89b4114610349578063a22cb4651461035e578063b88d4fde1461037e57600080fd5b80630e0aa94a116100e75780630e0aa94a1461025b57806323b872dd1461027b57806342842e0e1461029b5780636295c61a146102bb5780636352211e146102db57600080fd5b806301ffc9a71461018a57806306fdde03146101bf578063081812fc146101e1578063095ea7b314610219578063096c5e1a1461023b57600080fd5b36610185577fdd970dd9b5bfe707922155b058a407655cb18288b807e2216442bca8ad83d6b55a60405161017b91906040808252600790820152667265636569766560c81b6060820152602081019190915260800190565b60405180910390a1005b600080fd5b34801561019657600080fd5b506101aa6101a53660046112ff565b61041c565b60405190151581526020015b60405180910390f35b3480156101cb57600080fd5b506101d461046e565b6040516101b6919061136c565b3480156101ed57600080fd5b506102016101fc36600461137f565b610500565b6040516001600160a01b0390911681526020016101b6565b34801561022557600080fd5b506102396102343660046113ad565b610527565b005b34801561024757600080fd5b506102396102563660046113ad565b610641565b34801561026757600080fd5b506102396102763660046113d9565b610681565b34801561028757600080fd5b50610239610296366004611461565b6106c6565b3480156102a757600080fd5b506102396102b6366004611461565b6106f7565b3480156102c757600080fd5b506102396102d6366004611461565b610712565b3480156102e757600080fd5b506102016102f636600461137f565b61072d565b34801561030757600080fd5b5061031b6103163660046114a2565b61078d565b6040519081526020016101b6565b34801561033557600080fd5b506102396103443660046113ad565b610813565b34801561035557600080fd5b506101d4610821565b34801561036a57600080fd5b506102396103793660046114bf565b610830565b34801561038a57600080fd5b50610239610399366004611513565b61083b565b3480156103aa57600080fd5b5061031b60075481565b3480156103c057600080fd5b506101d46103cf36600461137f565b61086d565b61031b6103e23660046114a2565b6108e1565b3480156103f357600080fd5b50610239610999565b34801561040857600080fd5b506101aa6104173660046115f3565b6109ea565b60006001600160e01b031982166380ac58cd60e01b148061044d57506001600160e01b03198216635b5e139f60e01b145b8061046857506301ffc9a760e01b6001600160e01b03198316145b92915050565b60606000805461047d90611621565b80601f01602080910402602001604051908101604052809291908181526020018280546104a990611621565b80156104f65780601f106104cb576101008083540402835291602001916104f6565b820191906000526020600020905b8154815290600101906020018083116104d957829003601f168201915b5050505050905090565b600061050b82610a18565b506000908152600460205260409020546001600160a01b031690565b60006105328261072d565b9050806001600160a01b0316836001600160a01b0316036105a45760405162461bcd60e51b815260206004820152602160248201527f4552433732313a20617070726f76616c20746f2063757272656e74206f776e656044820152603960f91b60648201526084015b60405180910390fd5b336001600160a01b03821614806105c057506105c081336109ea565b6106325760405162461bcd60e51b815260206004820152603d60248201527f4552433732313a20617070726f76652063616c6c6572206973206e6f7420746f60448201527f6b656e206f776e6572206f7220617070726f76656420666f7220616c6c000000606482015260840161059b565b61063c8383610a7a565b505050565b61064a81610ae8565b6007546040516001600160a01b0384169180156108fc02916000818181858888f1935050505015801561063c573d6000803e3d6000fd5b60005b818110156106c0576106ae848484848181106106a2576106a261165b565b90506020020135610b8b565b806106b881611687565b915050610684565b50505050565b6106d03382610d24565b6106ec5760405162461bcd60e51b815260040161059b906116a0565b61063c838383610d83565b61063c8383836040518060200160405280600081525061083b565b61063c83838360405180602001604052806000815250610ef4565b6000818152600260205260408120546001600160a01b0316806104685760405162461bcd60e51b8152602060048201526018602482015277115490cdcc8c4e881a5b9d985b1a59081d1bdad95b88125160421b604482015260640161059b565b60006001600160a01b0382166107f75760405162461bcd60e51b815260206004820152602960248201527f4552433732313a2061646472657373207a65726f206973206e6f7420612076616044820152683634b21037bbb732b960b91b606482015260840161059b565b506001600160a01b031660009081526003602052604090205490565b61081d8282610b8b565b5050565b60606001805461047d90611621565b61081d338383610f27565b6108453383610d24565b6108615760405162461bcd60e51b815260040161059b906116a0565b6106c084848484610ef4565b606061087882610a18565b600061088f60408051602081019091526000815290565b905060008151116108af57604051806020016040528060008152506108da565b806108b984610ff5565b6040516020016108ca9291906116ed565b6040516020818303038152906040525b9392505050565b600060075434101561092a5760405162461bcd60e51b8152602060048201526012602482015271496e73756669636369656e742066756e647360701b604482015260640161059b565b610938600680546001019055565b600061094360065490565b905061094f8382610b8b565b826001600160a01b03166108fc6007543461096a919061171c565b6040518115909202916000818181858888f19350505050158015610992573d6000803e3d6000fd5b5092915050565b6040805181815260058183015264746573746560d81b60608201526104d2602082015290517fdd970dd9b5bfe707922155b058a407655cb18288b807e2216442bca8ad83d6b59181900360800190a1565b6001600160a01b03918216600090815260056020908152604080832093909416825291909152205460ff1690565b6000818152600260205260409020546001600160a01b0316610a775760405162461bcd60e51b8152602060048201526018602482015277115490cdcc8c4e881a5b9d985b1a59081d1bdad95b88125160421b604482015260640161059b565b50565b600081815260046020526040902080546001600160a01b0319166001600160a01b0384169081179091558190610aaf8261072d565b6001600160a01b03167f8c5be1e5ebec7d5bd14f71427d1e84f3dd0314c0f7b2291e5b200ac8c7c3b92560405160405180910390a45050565b6000610af38261072d565b9050610b03816000846001611088565b610b0c8261072d565b600083815260046020908152604080832080546001600160a01b03199081169091556001600160a01b0385168085526003845282852080546000190190558785526002909352818420805490911690555192935084927fddf252ad1be2c89b69c2b068fc378daa952ba7f163c4a11628f55a4df523b3ef908390a45050565b6001600160a01b038216610be15760405162461bcd60e51b815260206004820181905260248201527f4552433732313a206d696e7420746f20746865207a65726f2061646472657373604482015260640161059b565b6000818152600260205260409020546001600160a01b031615610c465760405162461bcd60e51b815260206004820152601c60248201527f4552433732313a20746f6b656e20616c7265616479206d696e74656400000000604482015260640161059b565b610c54600083836001611088565b6000818152600260205260409020546001600160a01b031615610cb95760405162461bcd60e51b815260206004820152601c60248201527f4552433732313a20746f6b656e20616c7265616479206d696e74656400000000604482015260640161059b565b6001600160a01b038216600081815260036020908152604080832080546001019055848352600290915280822080546001600160a01b0319168417905551839291907fddf252ad1be2c89b69c2b068fc378daa952ba7f163c4a11628f55a4df523b3ef908290a45050565b600080610d308361072d565b9050806001600160a01b0316846001600160a01b03161480610d575750610d5781856109ea565b80610d7b5750836001600160a01b0316610d7084610500565b6001600160a01b0316145b949350505050565b826001600160a01b0316610d968261072d565b6001600160a01b031614610dbc5760405162461bcd60e51b815260040161059b9061172f565b6001600160a01b038216610e1e5760405162461bcd60e51b8152602060048201526024808201527f4552433732313a207472616e7366657220746f20746865207a65726f206164646044820152637265737360e01b606482015260840161059b565b610e2b8383836001611088565b826001600160a01b0316610e3e8261072d565b6001600160a01b031614610e645760405162461bcd60e51b815260040161059b9061172f565b600081815260046020908152604080832080546001600160a01b03199081169091556001600160a01b0387811680865260038552838620805460001901905590871680865283862080546001019055868652600290945282852080549092168417909155905184937fddf252ad1be2c89b69c2b068fc378daa952ba7f163c4a11628f55a4df523b3ef91a4505050565b610eff848484610d83565b610f0b84848484611110565b6106c05760405162461bcd60e51b815260040161059b90611774565b816001600160a01b0316836001600160a01b031603610f885760405162461bcd60e51b815260206004820152601960248201527f4552433732313a20617070726f766520746f2063616c6c657200000000000000604482015260640161059b565b6001600160a01b03838116600081815260056020908152604080832094871680845294825291829020805460ff191686151590811790915591519182527f17307eab39ab6107e8899845ad3d59bd9653f200f220920489ca2b5937696c31910160405180910390a3505050565b6060600061100283611211565b600101905060008167ffffffffffffffff811115611022576110226114fd565b6040519080825280601f01601f19166020018201604052801561104c576020820181803683370190505b5090508181016020015b600019016f181899199a1a9b1b9c1cb0b131b232b360811b600a86061a8153600a850494508461105657509392505050565b60018111156106c0576001600160a01b038416156110ce576001600160a01b038416600090815260036020526040812080548392906110c890849061171c565b90915550505b6001600160a01b038316156106c0576001600160a01b038316600090815260036020526040812080548392906111059084906117c6565b909155505050505050565b60006001600160a01b0384163b1561120657604051630a85bd0160e11b81526001600160a01b0385169063150b7a02906111549033908990889088906004016117d9565b6020604051808303816000875af192505050801561118f575060408051601f3d908101601f1916820190925261118c91810190611816565b60015b6111ec573d8080156111bd576040519150601f19603f3d011682016040523d82523d6000602084013e6111c2565b606091505b5080516000036111e45760405162461bcd60e51b815260040161059b90611774565b805181602001fd5b6001600160e01b031916630a85bd0160e11b149050610d7b565b506001949350505050565b60008072184f03e93ff9f4daa797ed6e38ed64bf6a1f0160401b83106112505772184f03e93ff9f4daa797ed6e38ed64bf6a1f0160401b830492506040015b6d04ee2d6d415b85acef8100000000831061127c576d04ee2d6d415b85acef8100000000830492506020015b662386f26fc10000831061129a57662386f26fc10000830492506010015b6305f5e10083106112b2576305f5e100830492506008015b61271083106112c657612710830492506004015b606483106112d8576064830492506002015b600a83106104685760010192915050565b6001600160e01b031981168114610a7757600080fd5b60006020828403121561131157600080fd5b81356108da816112e9565b60005b8381101561133757818101518382015260200161131f565b50506000910152565b6000815180845261135881602086016020860161131c565b601f01601f19169290920160200192915050565b6020815260006108da6020830184611340565b60006020828403121561139157600080fd5b5035919050565b6001600160a01b0381168114610a7757600080fd5b600080604083850312156113c057600080fd5b82356113cb81611398565b946020939093013593505050565b6000806000604084860312156113ee57600080fd5b83356113f981611398565b9250602084013567ffffffffffffffff8082111561141657600080fd5b818601915086601f83011261142a57600080fd5b81358181111561143957600080fd5b8760208260051b850101111561144e57600080fd5b6020830194508093505050509250925092565b60008060006060848603121561147657600080fd5b833561148181611398565b9250602084013561149181611398565b929592945050506040919091013590565b6000602082840312156114b457600080fd5b81356108da81611398565b600080604083850312156114d257600080fd5b82356114dd81611398565b9150602083013580151581146114f257600080fd5b809150509250929050565b634e487b7160e01b600052604160045260246000fd5b6000806000806080858703121561152957600080fd5b843561153481611398565b9350602085013561154481611398565b925060408501359150606085013567ffffffffffffffff8082111561156857600080fd5b818701915087601f83011261157c57600080fd5b81358181111561158e5761158e6114fd565b604051601f8201601f19908116603f011681019083821181831017156115b6576115b66114fd565b816040528281528a60208487010111156115cf57600080fd5b82602086016020830137600060208483010152809550505050505092959194509250565b6000806040838503121561160657600080fd5b823561161181611398565b915060208301356114f281611398565b600181811c9082168061163557607f821691505b60208210810361165557634e487b7160e01b600052602260045260246000fd5b50919050565b634e487b7160e01b600052603260045260246000fd5b634e487b7160e01b600052601160045260246000fd5b60006001820161169957611699611671565b5060010190565b6020808252602d908201527f4552433732313a2063616c6c6572206973206e6f7420746f6b656e206f776e6560408201526c1c881bdc88185c1c1c9bdd9959609a1b606082015260800190565b600083516116ff81846020880161131c565b83519083019061171381836020880161131c565b01949350505050565b8181038181111561046857610468611671565b60208082526025908201527f4552433732313a207472616e736665722066726f6d20696e636f72726563742060408201526437bbb732b960d91b606082015260800190565b60208082526032908201527f4552433732313a207472616e7366657220746f206e6f6e20455243373231526560408201527131b2b4bb32b91034b6b83632b6b2b73a32b960711b606082015260800190565b8082018082111561046857610468611671565b6001600160a01b038581168252841660208201526040810183905260806060820181905260009061180c90830184611340565b9695505050505050565b60006020828403121561182857600080fd5b81516108da816112e956fea26469706673582212206a7f03b485115dc41fc3f26c2e13cf8bc7891736e2e0ff981d279d0d308cfa3164736f6c63430008110033",
    "linkReferences": {}
  },
  "methodIdentifiers": {
    "airdropBatch(address,uint256[])": "0e0aa94a",
    "airdropSingle(address,uint256)": "7eb70bf7",
    "approve(address,uint256)": "095ea7b3",
    "balanceOf(address)": "70a08231",
    "basePrice()": "c7876ea4",
    "buyItem(address)": "dd62b039",
    "eventLog()": "df69e391",
    "getApproved(uint256)": "081812fc",
    "isApprovedForAll(address,address)": "e985e9c5",
    "name()": "06fdde03",
    "ownerOf(uint256)": "6352211e",
    "safeTransferFrom(address,address,uint256)": "42842e0e",
    "safeTransferFrom(address,address,uint256,bytes)": "b88d4fde",
    "sellItem(address,uint256)": "096c5e1a",
    "setApprovalForAll(address,bool)": "a22cb465",
    "supportsInterface(bytes4)": "01ffc9a7",
    "symbol()": "95d89b41",
    "tokenURI(uint256)": "c87b56dd",
    "transferFrom(address,address,uint256)": "23b872dd",
    "transferItem(address,address,uint256)": "6295c61a"
  },
  "id": 26
}