{
  "abi": [
    {
      "inputs": [
        {
          "internalType": "address payable",
          "name": "_callMeMaybe",
          "type": "address"
        }
      ],
      "stateMutability": "nonpayable",
      "type": "constructor"
    },
    {
      "inputs": [],
      "name": "carly",
      "outputs": [
        {
          "internalType": "contract CallMeMaybe",
          "name": "",
          "type": "address"
        }
      ],
      "stateMutability": "view",
      "type": "function"
    }
  ],
  "bytecode": {
    "object": "0x608060405234801561001057600080fd5b506040516101b43803806101b483398101604081905261002f916100e5565b600180546001600160a01b03199081163317909155600080546001600160a01b038416921682178155604080516314b936c560e21b815290516352e4db149260048084019391929182900301818387803b15801561008c57600080fd5b505af11580156100a0573d6000803e3d6000fd5b50506001546040516001600160a01b0390911692504780156108fc029250906000818181858888f193505050501580156100de573d6000803e3d6000fd5b5050610115565b6000602082840312156100f757600080fd5b81516001600160a01b038116811461010e57600080fd5b9392505050565b6091806101236000396000f3fe6080604052348015600f57600080fd5b506004361060285760003560e01c8063f5ac200114602d575b600080fd5b600054603f906001600160a01b031681565b6040516001600160a01b03909116815260200160405180910390f3fea264697066735822122067d1d897188d39a927b9c88c9e5df9700476b8df11b93d85668e5df4e17bea5764736f6c63430008110033",
    "linkReferences": {}
  },
  "methodIdentifiers": {
    "carly()": "f5ac2001"
  },
  "id": 19
}