{
  "abi": [
    {
      "anonymous": false,
      "inputs": [
        {
          "indexed": false,
          "internalType": "uint256",
          "name": "",
          "type": "uint256"
        }
      ],
      "name": "displayNumber",
      "type": "event"
    },
    {
      "inputs": [
        {
          "internalType": "uint256",
          "name": "",
          "type": "uint256"
        }
      ],
      "name": "games",
      "outputs": [
        {
          "internalType": "address",
          "name": "player",
          "type": "address"
        },
        {
          "internalType": "uint256",
          "name": "id",
          "type": "uint256"
        },
        {
          "internalType": "uint256",
          "name": "bet",
          "type": "uint256"
        },
        {
          "internalType": "uint256",
          "name": "blockNumber",
          "type": "uint256"
        }
      ],
      "stateMutability": "view",
      "type": "function"
    },
    {
      "inputs": [
        {
          "internalType": "uint256",
          "name": "_bet",
          "type": "uint256"
        }
      ],
      "name": "spin",
      "outputs": [],
      "stateMutability": "payable",
      "type": "function"
    },
    {
      "stateMutability": "payable",
      "type": "receive"
    }
  ],
  "bytecode": {
    "object": "0x608060405234801561001057600080fd5b50610492806100206000396000f3fe60806040526004361061002d5760003560e01c8063117a5b9014610039578063a5b6ea8f1461008757600080fd5b3661003457005b600080fd5b34801561004557600080fd5b506100596100543660046103ca565b61009c565b604080516001600160a01b039095168552602085019390935291830152606082015260800160405180910390f35b61009a6100953660046103ca565b6100e0565b005b600081815481106100ac57600080fd5b600091825260209091206004909102018054600182015460028301546003909301546001600160a01b039092169350919084565b662386f26fc100003410156100f457600080fd5b600080546040805160808101825233815260208101839052908101849052909190606081016101246001436103e3565b90528154600180820184556000938452602093849020835160049093020180546001600160a01b0319166001600160a01b039093169290921782559282015192810192909255604081015160028301556060015160039091015580156103845760006101916001836103e3565b905060006101c5600083815481106101ab576101ab610404565b906000526020600020906004020160030154406064610388565b905060008051602061043d833981519152816040516101e691815260200190565b60405180910390a160008051602061043d8339815191526000838154811061021057610210610404565b90600052602060002090600402016002015460405161023191815260200190565b60405180910390a160008051602061043d8339815191526000838154811061025b5761025b610404565b90600052602060002090600402016003015460405161027c91815260200190565b60405180910390a160008051602061043d8339815191526102a1611985406064610388565b60405190815260200160405180910390a160405161198540815260008051602061043d8339815191529060200160405180910390a1604051620571bb40815260008051602061043d8339815191529060200160405180910390a16000828154811061030e5761030e610404565b9060005260206000209060040201600201548103610381576000828154811061033957610339610404565b600091825260208220600490910201546040516001600160a01b03909116914780156108fc02929091818181858888f1935050505015801561037f573d6000803e3d6000fd5b505b50505b5050565b6000818360405160200161039e91815260200190565b6040516020818303038152906040528051906020012060001c6103c1919061041a565b90505b92915050565b6000602082840312156103dc57600080fd5b5035919050565b818103818111156103c457634e487b7160e01b600052601160045260246000fd5b634e487b7160e01b600052603260045260246000fd5b60008261043757634e487b7160e01b600052601260045260246000fd5b50069056feeb8d003637d31d02e04b5b9ef79a025c28bf25e68ddfa32474d0652a5ef48d52a26469706673582212203a429fbf14fd34249e6708b5cc70c806651c400ce88567b661329242b999cf7264736f6c63430008110033",
    "linkReferences": {}
  },
  "methodIdentifiers": {
    "games(uint256)": "117a5b90",
    "spin(uint256)": "a5b6ea8f"
  },
  "id": 15
}