{
  "abi": [
    {
      "inputs": [],
      "stateMutability": "nonpayable",
      "type": "constructor"
    },
    {
      "anonymous": false,
      "inputs": [
        {
          "indexed": true,
          "internalType": "address",
          "name": "owner",
          "type": "address"
        },
        {
          "indexed": true,
          "internalType": "address",
          "name": "approved",
          "type": "address"
        },
        {
          "indexed": true,
          "internalType": "uint256",
          "name": "tokenId",
          "type": "uint256"
        }
      ],
      "name": "Approval",
      "type": "event"
    },
    {
      "anonymous": false,
      "inputs": [
        {
          "indexed": true,
          "internalType": "address",
          "name": "owner",
          "type": "address"
        },
        {
          "indexed": true,
          "internalType": "address",
          "name": "operator",
          "type": "address"
        },
        {
          "indexed": false,
          "internalType": "bool",
          "name": "approved",
          "type": "bool"
        }
      ],
      "name": "ApprovalForAll",
      "type": "event"
    },
    {
      "anonymous": false,
      "inputs": [
        {
          "indexed": true,
          "internalType": "address",
          "name": "from",
          "type": "address"
        },
        {
          "indexed": true,
          "internalType": "address",
          "name": "to",
          "type": "address"
        },
        {
          "indexed": true,
          "internalType": "uint256",
          "name": "tokenId",
          "type": "uint256"
        }
      ],
      "name": "Transfer",
      "type": "event"
    },
    {
      "inputs": [
        {
          "internalType": "address",
          "name": "to",
          "type": "address"
        },
        {
          "internalType": "uint256",
          "name": "tokenId",
          "type": "uint256"
        }
      ],
      "name": "approve",
      "outputs": [],
      "stateMutability": "nonpayable",
      "type": "function"
    },
    {
      "inputs": [
        {
          "internalType": "address",
          "name": "owner",
          "type": "address"
        }
      ],
      "name": "balanceOf",
      "outputs": [
        {
          "internalType": "uint256",
          "name": "",
          "type": "uint256"
        }
      ],
      "stateMutability": "view",
      "type": "function"
    },
    {
      "inputs": [
        {
          "internalType": "uint256",
          "name": "tokenId",
          "type": "uint256"
        }
      ],
      "name": "getApproved",
      "outputs": [
        {
          "internalType": "address",
          "name": "",
          "type": "address"
        }
      ],
      "stateMutability": "view",
      "type": "function"
    },
    {
      "inputs": [],
      "name": "getNFT",
      "outputs": [],
      "stateMutability": "payable",
      "type": "function"
    },
    {
      "inputs": [
        {
          "internalType": "address",
          "name": "owner",
          "type": "address"
        },
        {
          "internalType": "address",
          "name": "operator",
          "type": "address"
        }
      ],
      "name": "isApprovedForAll",
      "outputs": [
        {
          "internalType": "bool",
          "name": "",
          "type": "bool"
        }
      ],
      "stateMutability": "view",
      "type": "function"
    },
    {
      "inputs": [],
      "name": "name",
      "outputs": [
        {
          "internalType": "string",
          "name": "",
          "type": "string"
        }
      ],
      "stateMutability": "view",
      "type": "function"
    },
    {
      "inputs": [
        {
          "internalType": "uint256",
          "name": "tokenId",
          "type": "uint256"
        }
      ],
      "name": "ownerOf",
      "outputs": [
        {
          "internalType": "address",
          "name": "",
          "type": "address"
        }
      ],
      "stateMutability": "view",
      "type": "function"
    },
    {
      "inputs": [
        {
          "internalType": "address",
          "name": "from",
          "type": "address"
        },
        {
          "internalType": "address",
          "name": "to",
          "type": "address"
        },
        {
          "internalType": "uint256",
          "name": "tokenId",
          "type": "uint256"
        }
      ],
      "name": "safeTransferFrom",
      "outputs": [],
      "stateMutability": "nonpayable",
      "type": "function"
    },
    {
      "inputs": [
        {
          "internalType": "address",
          "name": "from",
          "type": "address"
        },
        {
          "internalType": "address",
          "name": "to",
          "type": "address"
        },
        {
          "internalType": "uint256",
          "name": "tokenId",
          "type": "uint256"
        },
        {
          "internalType": "bytes",
          "name": "data",
          "type": "bytes"
        }
      ],
      "name": "safeTransferFrom",
      "outputs": [],
      "stateMutability": "nonpayable",
      "type": "function"
    },
    {
      "inputs": [
        {
          "internalType": "uint256",
          "name": "ItemId",
          "type": "uint256"
        }
      ],
      "name": "sellNFT",
      "outputs": [],
      "stateMutability": "nonpayable",
      "type": "function"
    },
    {
      "inputs": [
        {
          "internalType": "address",
          "name": "operator",
          "type": "address"
        },
        {
          "internalType": "bool",
          "name": "approved",
          "type": "bool"
        }
      ],
      "name": "setApprovalForAll",
      "outputs": [],
      "stateMutability": "nonpayable",
      "type": "function"
    },
    {
      "inputs": [
        {
          "internalType": "bytes4",
          "name": "interfaceId",
          "type": "bytes4"
        }
      ],
      "name": "supportsInterface",
      "outputs": [
        {
          "internalType": "bool",
          "name": "",
          "type": "bool"
        }
      ],
      "stateMutability": "view",
      "type": "function"
    },
    {
      "inputs": [],
      "name": "symbol",
      "outputs": [
        {
          "internalType": "string",
          "name": "",
          "type": "string"
        }
      ],
      "stateMutability": "view",
      "type": "function"
    },
    {
      "inputs": [
        {
          "internalType": "uint256",
          "name": "tokenId",
          "type": "uint256"
        }
      ],
      "name": "tokenURI",
      "outputs": [
        {
          "internalType": "string",
          "name": "",
          "type": "string"
        }
      ],
      "stateMutability": "view",
      "type": "function"
    },
    {
      "inputs": [
        {
          "internalType": "address",
          "name": "from",
          "type": "address"
        },
        {
          "internalType": "address",
          "name": "to",
          "type": "address"
        },
        {
          "internalType": "uint256",
          "name": "tokenId",
          "type": "uint256"
        }
      ],
      "name": "transferFrom",
      "outputs": [],
      "stateMutability": "nonpayable",
      "type": "function"
    }
  ],
  "bytecode": {
    "object": "0x60806040523480156200001157600080fd5b506040518060400160405280600d81526020016c151a1c995954da59db58539195609a1b815250604051806040016040528060048152602001633353494760e01b815250816000908162000066919062000123565b50600162000075828262000123565b505050620001ef565b634e487b7160e01b600052604160045260246000fd5b600181811c90821680620000a957607f821691505b602082108103620000ca57634e487b7160e01b600052602260045260246000fd5b50919050565b601f8211156200011e57600081815260208120601f850160051c81016020861015620000f95750805b601f850160051c820191505b818110156200011a5782815560010162000105565b5050505b505050565b81516001600160401b038111156200013f576200013f6200007e565b620001578162000150845462000094565b84620000d0565b602080601f8311600181146200018f5760008415620001765750858301515b600019600386901b1c1916600185901b1785556200011a565b600085815260208120601f198616915b82811015620001c0578886015182559484019460019091019084016200019f565b5085821015620001df5787850151600019600388901b60f8161c191681555b5050505050600190811b01905550565b61155d80620001ff6000396000f3fe6080604052600436106100e85760003560e01c806370a082311161008a578063b88d4fde11610059578063b88d4fde14610269578063c87b56dd14610289578063e985e9c5146102a9578063ee9cdfb3146102c957600080fd5b806370a08231146101fe57806388a6360e1461022c57806395d89b4114610234578063a22cb4651461024957600080fd5b8063095ea7b3116100c6578063095ea7b31461017c57806323b872dd1461019e57806342842e0e146101be5780636352211e146101de57600080fd5b806301ffc9a7146100ed57806306fdde0314610122578063081812fc14610144575b600080fd5b3480156100f957600080fd5b5061010d6101083660046110ad565b6102e9565b60405190151581526020015b60405180910390f35b34801561012e57600080fd5b5061013761033b565b604051610119919061111a565b34801561015057600080fd5b5061016461015f36600461112d565b6103cd565b6040516001600160a01b039091168152602001610119565b34801561018857600080fd5b5061019c610197366004611162565b6103f4565b005b3480156101aa57600080fd5b5061019c6101b936600461118c565b61050e565b3480156101ca57600080fd5b5061019c6101d936600461118c565b61053f565b3480156101ea57600080fd5b506101646101f936600461112d565b61055a565b34801561020a57600080fd5b5061021e6102193660046111c8565b6105ba565b604051908152602001610119565b61019c610640565b34801561024057600080fd5b506101376106d1565b34801561025557600080fd5b5061019c6102643660046111e3565b6106e0565b34801561027557600080fd5b5061019c610284366004611235565b6106ef565b34801561029557600080fd5b506101376102a436600461112d565b610727565b3480156102b557600080fd5b5061010d6102c4366004611311565b61079b565b3480156102d557600080fd5b5061019c6102e436600461112d565b6107c9565b60006001600160e01b031982166380ac58cd60e01b148061031a57506001600160e01b03198216635b5e139f60e01b145b8061033557506301ffc9a760e01b6001600160e01b03198316145b92915050565b60606000805461034a90611344565b80601f016020809104026020016040519081016040528092919081815260200182805461037690611344565b80156103c35780601f10610398576101008083540402835291602001916103c3565b820191906000526020600020905b8154815290600101906020018083116103a657829003601f168201915b5050505050905090565b60006103d88261086c565b506000908152600460205260409020546001600160a01b031690565b60006103ff8261055a565b9050806001600160a01b0316836001600160a01b0316036104715760405162461bcd60e51b815260206004820152602160248201527f4552433732313a20617070726f76616c20746f2063757272656e74206f776e656044820152603960f91b60648201526084015b60405180910390fd5b336001600160a01b038216148061048d575061048d813361079b565b6104ff5760405162461bcd60e51b815260206004820152603d60248201527f4552433732313a20617070726f76652063616c6c6572206973206e6f7420746f60448201527f6b656e206f776e6572206f7220617070726f76656420666f7220616c6c0000006064820152608401610468565b61050983836108cb565b505050565b6105183382610939565b6105345760405162461bcd60e51b81526004016104689061137e565b610509838383610998565b610509838383604051806020016040528060008152506106ef565b6000818152600260205260408120546001600160a01b0316806103355760405162461bcd60e51b8152602060048201526018602482015277115490cdcc8c4e881a5b9d985b1a59081d1bdad95b88125160421b6044820152606401610468565b60006001600160a01b0382166106245760405162461bcd60e51b815260206004820152602960248201527f4552433732313a2061646472657373207a65726f206973206e6f7420612076616044820152683634b21037bbb732b960b91b6064820152608401610468565b506001600160a01b031660009081526003602052604090205490565b3467016345785d8a0000146106a95760405162461bcd60e51b815260206004820152602960248201527f496e636f72726563742076616c75652c2074686973204e465420636f737473206044820152681817189032ba3432b960b91b6064820152608401610468565b6106b7600680546001019055565b60006106c260065490565b90506106ce3382610b09565b50565b60606001805461034a90611344565b6106eb338383610ca2565b5050565b6106f93383610939565b6107155760405162461bcd60e51b81526004016104689061137e565b61072184848484610d70565b50505050565b60606107328261086c565b600061074960408051602081019091526000815290565b905060008151116107695760405180602001604052806000815250610794565b8061077384610da3565b6040516020016107849291906113cb565b6040516020818303038152906040525b9392505050565b6001600160a01b03918216600090815260056020908152604080832093909416825291909152205460ff1690565b6107d28161055a565b6001600160a01b0316336001600160a01b0316146108325760405162461bcd60e51b815260206004820181905260248201527f4f6e6c7920746865206f776e65722063616e2073656c6c2074686973204e46546044820152606401610468565b61083d33308361053f565b604051339060009066b1a2bc2ec500009082818181858883f193505050501580156106eb573d6000803e3d6000fd5b6000818152600260205260409020546001600160a01b03166106ce5760405162461bcd60e51b8152602060048201526018602482015277115490cdcc8c4e881a5b9d985b1a59081d1bdad95b88125160421b6044820152606401610468565b600081815260046020526040902080546001600160a01b0319166001600160a01b03841690811790915581906109008261055a565b6001600160a01b03167f8c5be1e5ebec7d5bd14f71427d1e84f3dd0314c0f7b2291e5b200ac8c7c3b92560405160405180910390a45050565b6000806109458361055a565b9050806001600160a01b0316846001600160a01b0316148061096c575061096c818561079b565b806109905750836001600160a01b0316610985846103cd565b6001600160a01b0316145b949350505050565b826001600160a01b03166109ab8261055a565b6001600160a01b0316146109d15760405162461bcd60e51b8152600401610468906113fa565b6001600160a01b038216610a335760405162461bcd60e51b8152602060048201526024808201527f4552433732313a207472616e7366657220746f20746865207a65726f206164646044820152637265737360e01b6064820152608401610468565b610a408383836001610e36565b826001600160a01b0316610a538261055a565b6001600160a01b031614610a795760405162461bcd60e51b8152600401610468906113fa565b600081815260046020908152604080832080546001600160a01b03199081169091556001600160a01b0387811680865260038552838620805460001901905590871680865283862080546001019055868652600290945282852080549092168417909155905184937fddf252ad1be2c89b69c2b068fc378daa952ba7f163c4a11628f55a4df523b3ef91a4505050565b6001600160a01b038216610b5f5760405162461bcd60e51b815260206004820181905260248201527f4552433732313a206d696e7420746f20746865207a65726f20616464726573736044820152606401610468565b6000818152600260205260409020546001600160a01b031615610bc45760405162461bcd60e51b815260206004820152601c60248201527f4552433732313a20746f6b656e20616c7265616479206d696e746564000000006044820152606401610468565b610bd2600083836001610e36565b6000818152600260205260409020546001600160a01b031615610c375760405162461bcd60e51b815260206004820152601c60248201527f4552433732313a20746f6b656e20616c7265616479206d696e746564000000006044820152606401610468565b6001600160a01b038216600081815260036020908152604080832080546001019055848352600290915280822080546001600160a01b0319168417905551839291907fddf252ad1be2c89b69c2b068fc378daa952ba7f163c4a11628f55a4df523b3ef908290a45050565b816001600160a01b0316836001600160a01b031603610d035760405162461bcd60e51b815260206004820152601960248201527f4552433732313a20617070726f766520746f2063616c6c6572000000000000006044820152606401610468565b6001600160a01b03838116600081815260056020908152604080832094871680845294825291829020805460ff191686151590811790915591519182527f17307eab39ab6107e8899845ad3d59bd9653f200f220920489ca2b5937696c31910160405180910390a3505050565b610d7b848484610998565b610d8784848484610ebe565b6107215760405162461bcd60e51b81526004016104689061143f565b60606000610db083610fbf565b600101905060008167ffffffffffffffff811115610dd057610dd061121f565b6040519080825280601f01601f191660200182016040528015610dfa576020820181803683370190505b5090508181016020015b600019016f181899199a1a9b1b9c1cb0b131b232b360811b600a86061a8153600a8504945084610e0457509392505050565b6001811115610721576001600160a01b03841615610e7c576001600160a01b03841660009081526003602052604081208054839290610e769084906114a7565b90915550505b6001600160a01b03831615610721576001600160a01b03831660009081526003602052604081208054839290610eb39084906114ba565b909155505050505050565b60006001600160a01b0384163b15610fb457604051630a85bd0160e11b81526001600160a01b0385169063150b7a0290610f029033908990889088906004016114cd565b6020604051808303816000875af1925050508015610f3d575060408051601f3d908101601f19168201909252610f3a9181019061150a565b60015b610f9a573d808015610f6b576040519150601f19603f3d011682016040523d82523d6000602084013e610f70565b606091505b508051600003610f925760405162461bcd60e51b81526004016104689061143f565b805181602001fd5b6001600160e01b031916630a85bd0160e11b149050610990565b506001949350505050565b60008072184f03e93ff9f4daa797ed6e38ed64bf6a1f0160401b8310610ffe5772184f03e93ff9f4daa797ed6e38ed64bf6a1f0160401b830492506040015b6d04ee2d6d415b85acef8100000000831061102a576d04ee2d6d415b85acef8100000000830492506020015b662386f26fc10000831061104857662386f26fc10000830492506010015b6305f5e1008310611060576305f5e100830492506008015b612710831061107457612710830492506004015b60648310611086576064830492506002015b600a83106103355760010192915050565b6001600160e01b0319811681146106ce57600080fd5b6000602082840312156110bf57600080fd5b813561079481611097565b60005b838110156110e55781810151838201526020016110cd565b50506000910152565b600081518084526111068160208601602086016110ca565b601f01601f19169290920160200192915050565b60208152600061079460208301846110ee565b60006020828403121561113f57600080fd5b5035919050565b80356001600160a01b038116811461115d57600080fd5b919050565b6000806040838503121561117557600080fd5b61117e83611146565b946020939093013593505050565b6000806000606084860312156111a157600080fd5b6111aa84611146565b92506111b860208501611146565b9150604084013590509250925092565b6000602082840312156111da57600080fd5b61079482611146565b600080604083850312156111f657600080fd5b6111ff83611146565b91506020830135801515811461121457600080fd5b809150509250929050565b634e487b7160e01b600052604160045260246000fd5b6000806000806080858703121561124b57600080fd5b61125485611146565b935061126260208601611146565b925060408501359150606085013567ffffffffffffffff8082111561128657600080fd5b818701915087601f83011261129a57600080fd5b8135818111156112ac576112ac61121f565b604051601f8201601f19908116603f011681019083821181831017156112d4576112d461121f565b816040528281528a60208487010111156112ed57600080fd5b82602086016020830137600060208483010152809550505050505092959194509250565b6000806040838503121561132457600080fd5b61132d83611146565b915061133b60208401611146565b90509250929050565b600181811c9082168061135857607f821691505b60208210810361137857634e487b7160e01b600052602260045260246000fd5b50919050565b6020808252602d908201527f4552433732313a2063616c6c6572206973206e6f7420746f6b656e206f776e6560408201526c1c881bdc88185c1c1c9bdd9959609a1b606082015260800190565b600083516113dd8184602088016110ca565b8351908301906113f18183602088016110ca565b01949350505050565b60208082526025908201527f4552433732313a207472616e736665722066726f6d20696e636f72726563742060408201526437bbb732b960d91b606082015260800190565b60208082526032908201527f4552433732313a207472616e7366657220746f206e6f6e20455243373231526560408201527131b2b4bb32b91034b6b83632b6b2b73a32b960711b606082015260800190565b634e487b7160e01b600052601160045260246000fd5b8181038181111561033557610335611491565b8082018082111561033557610335611491565b6001600160a01b0385811682528416602082015260408101839052608060608201819052600090611500908301846110ee565b9695505050505050565b60006020828403121561151c57600080fd5b81516107948161109756fea2646970667358221220707f3a8126c05b0f87d7f3932f02eb74ee9216cb764f5093384044ab61fd008e64736f6c63430008110033",
    "linkReferences": {}
  },
  "methodIdentifiers": {
    "approve(address,uint256)": "095ea7b3",
    "balanceOf(address)": "70a08231",
    "getApproved(uint256)": "081812fc",
    "getNFT()": "88a6360e",
    "isApprovedForAll(address,address)": "e985e9c5",
    "name()": "06fdde03",
    "ownerOf(uint256)": "6352211e",
    "safeTransferFrom(address,address,uint256)": "42842e0e",
    "safeTransferFrom(address,address,uint256,bytes)": "b88d4fde",
    "sellNFT(uint256)": "ee9cdfb3",
    "setApprovalForAll(address,bool)": "a22cb465",
    "supportsInterface(bytes4)": "01ffc9a7",
    "symbol()": "95d89b41",
    "tokenURI(uint256)": "c87b56dd",
    "transferFrom(address,address,uint256)": "23b872dd"
  },
  "id": 12
}