{
  "abi": [
    {
      "anonymous": false,
      "inputs": [
        {
          "indexed": false,
          "internalType": "uint256",
          "name": "gas",
          "type": "uint256"
        }
      ],
      "name": "gasTested",
      "type": "event"
    },
    {
      "inputs": [
        {
          "internalType": "bytes8",
          "name": "_gateKey",
          "type": "bytes8"
        },
        {
          "internalType": "address",
          "name": "actualOrigin",
          "type": "address"
        }
      ],
      "name": "enter",
      "outputs": [
        {
          "internalType": "bool",
          "name": "",
          "type": "bool"
        }
      ],
      "stateMutability": "nonpayable",
      "type": "function"
    },
    {
      "inputs": [],
      "name": "entrant",
      "outputs": [
        {
          "internalType": "address",
          "name": "",
          "type": "address"
        }
      ],
      "stateMutability": "view",
      "type": "function"
    }
  ],
  "bytecode": {
    "object": "0x608060405234801561001057600080fd5b5061032d806100206000396000f3fe608060405234801561001057600080fd5b50600436106100365760003560e01c8063181c8ef91461003b5780639db31d7714610063575b600080fd5b61004e610049366004610283565b61008e565b60405190151581526020015b60405180910390f35b600054610076906001600160a01b031681565b6040516001600160a01b03909116815260200161005a565b60003233036100d65760405162461bcd60e51b815260206004820152600f60248201526e11d85d19481bdb994819985a5b1959608a1b60448201526064015b60405180910390fd5b611fff5a6100e491906102d5565b156101175760405162461bcd60e51b815260206004820152600360248201526247415360e81b60448201526064016100cd565b82828160c01c61ffff168260c01c63ffffffff161461018a5760405162461bcd60e51b815260206004820152602960248201527f476174656b65657065724f6e653a20696e76616c6964206761746554687265656044820152682070617274206f6e6560b81b60648201526084016100cd565b60c082901c63ffffffff8116036101f55760405162461bcd60e51b815260206004820152602960248201527f476174656b65657065724f6e653a20696e76616c69642067617465546872656560448201526820706172742074776f60b81b60648201526084016100cd565b8061ffff168260c01c63ffffffff16146102655760405162461bcd60e51b815260206004820152602b60248201527f476174656b65657065724f6e653a20696e76616c69642067617465546872656560448201526a207061727420746872656560a81b60648201526084016100cd565b600080546001600160a01b0319163217905560019250505092915050565b6000806040838503121561029657600080fd5b82356001600160c01b0319811681146102ae57600080fd5b915060208301356001600160a01b03811681146102ca57600080fd5b809150509250929050565b6000826102f257634e487b7160e01b600052601260045260246000fd5b50069056fea2646970667358221220e2d52e53cfed9629d2617a11a4cbf78c5dde16757d7788b962a46c35750f694864736f6c63430008110033",
    "linkReferences": {}
  },
  "methodIdentifiers": {
    "enter(bytes8,address)": "181c8ef9",
    "entrant()": "9db31d77"
  },
  "id": 18
}