{
  "abi": [
    {
      "inputs": [
        {
          "internalType": "address",
          "name": "",
          "type": "address"
        }
      ],
      "name": "credit",
      "outputs": [
        {
          "internalType": "uint256",
          "name": "",
          "type": "uint256"
        }
      ],
      "stateMutability": "view",
      "type": "function"
    },
    {
      "inputs": [
        {
          "internalType": "address",
          "name": "to",
          "type": "address"
        }
      ],
      "name": "deposit",
      "outputs": [],
      "stateMutability": "payable",
      "type": "function"
    },
    {
      "inputs": [
        {
          "internalType": "address",
          "name": "to",
          "type": "address"
        }
      ],
      "name": "queryCredit",
      "outputs": [
        {
          "internalType": "uint256",
          "name": "",
          "type": "uint256"
        }
      ],
      "stateMutability": "view",
      "type": "function"
    },
    {
      "inputs": [
        {
          "internalType": "uint256",
          "name": "amount",
          "type": "uint256"
        }
      ],
      "name": "withdraw",
      "outputs": [],
      "stateMutability": "nonpayable",
      "type": "function"
    }
  ],
  "bytecode": {
    "object": "0x608060405234801561001057600080fd5b5061024a806100206000396000f3fe60806040526004361061003f5760003560e01c80632e1a7d4d1461004457806359f1286d14610066578063d5d44d80146100ae578063f340fa01146100db575b600080fd5b34801561005057600080fd5b5061006461005f3660046101a4565b6100ee565b005b34801561007257600080fd5b5061009c6100813660046101bd565b6001600160a01b031660009081526020819052604090205490565b60405190815260200160405180910390f35b3480156100ba57600080fd5b5061009c6100c93660046101bd565b60006020819052908152604090205481565b6100646100e93660046101bd565b610174565b33600090815260208190526040902054811161017157604051600090339083908381818185875af1925050503d8060008114610146576040519150601f19603f3d011682016040523d82523d6000602084013e61014b565b606091505b505090508061015957600080fd5b50336000908152602081905260409020805482900390555b50565b6001600160a01b0381166000908152602081905260408120805434929061019c9084906101ed565b909155505050565b6000602082840312156101b657600080fd5b5035919050565b6000602082840312156101cf57600080fd5b81356001600160a01b03811681146101e657600080fd5b9392505050565b8082018082111561020e57634e487b7160e01b600052601160045260246000fd5b9291505056fea2646970667358221220ae6ee684c205a8a14712ba177f0ea7877854cbb5f227ca457b3a1ed605b4b37764736f6c63430008110033",
    "linkReferences": {}
  },
  "methodIdentifiers": {
    "credit(address)": "d5d44d80",
    "deposit(address)": "f340fa01",
    "queryCredit(address)": "59f1286d",
    "withdraw(uint256)": "2e1a7d4d"
  },
  "id": 17
}