{
  "abi": [
    {
      "inputs": [
        {
          "internalType": "address",
          "name": "_vaultAddress",
          "type": "address"
        }
      ],
      "stateMutability": "nonpayable",
      "type": "constructor"
    },
    {
      "inputs": [],
      "name": "CTF1",
      "outputs": [
        {
          "internalType": "contract Vault",
          "name": "",
          "type": "address"
        }
      ],
      "stateMutability": "view",
      "type": "function"
    },
    {
      "inputs": [],
      "name": "attackVault",
      "outputs": [],
      "stateMutability": "payable",
      "type": "function"
    },
    {
      "inputs": [],
      "name": "withdraw",
      "outputs": [],
      "stateMutability": "nonpayable",
      "type": "function"
    },
    {
      "stateMutability": "payable",
      "type": "receive"
    }
  ],
  "bytecode": {
    "object": "0x608060405234801561001057600080fd5b5060405161031c38038061031c83398101604081905261002f9161005d565b600080546001600160a01b039092166001600160a01b0319928316179055600180549091163317905561008d565b60006020828403121561006f57600080fd5b81516001600160a01b038116811461008657600080fd5b9392505050565b6102808061009c6000396000f3fe6080604052600436106100385760003560e01c80633ccfd60b146100c75780637352aa8e146100dc578063e781603d146100e457600080fd5b366100c25760005467016345785d8a00006001600160a01b0390911631106100c057600054604051632e1a7d4d60e01b815267016345785d8a000060048201526001600160a01b0390911690632e1a7d4d90602401600060405180830381600087803b1580156100a757600080fd5b505af11580156100bb573d6000803e3d6000fd5b505050505b005b600080fd5b3480156100d357600080fd5b506100c0610120565b6100c0610166565b3480156100f057600080fd5b50600054610104906001600160a01b031681565b6040516001600160a01b03909116815260200160405180910390f35b6001546001600160a01b0316331461013757600080fd5b60405133904780156108fc02916000818181858888f19350505050158015610163573d6000803e3d6000fd5b50565b67016345785d8a000034101561017b57600080fd5b60005460405163f340fa0160e01b81523060048201526001600160a01b039091169063f340fa019067016345785d8a0000906024016000604051808303818588803b1580156101c957600080fd5b505af11580156101dd573d6000803e3d6000fd5b5050600054604051632e1a7d4d60e01b815267016345785d8a000060048201526001600160a01b039091169350632e1a7d4d92506024019050600060405180830381600087803b15801561023057600080fd5b505af1158015610244573d6000803e3d6000fd5b5050505056fea26469706673582212207db19d0b89afbac6197ad160b9368aa6b42565efa1a3ee920d37b44ee254f4cd64736f6c63430008110033",
    "linkReferences": {}
  },
  "methodIdentifiers": {
    "CTF1()": "e781603d",
    "attackVault()": "7352aa8e",
    "withdraw()": "3ccfd60b"
  },
  "id": 16
}