{
  "abi": [
    {
      "inputs": [
        {
          "internalType": "address",
          "name": "nftContract",
          "type": "address"
        }
      ],
      "stateMutability": "nonpayable",
      "type": "constructor"
    },
    {
      "anonymous": false,
      "inputs": [
        {
          "indexed": false,
          "internalType": "bool",
          "name": "success",
          "type": "bool"
        },
        {
          "indexed": false,
          "internalType": "bytes",
          "name": "data",
          "type": "bytes"
        }
      ],
      "name": "Response",
      "type": "event"
    },
    {
      "inputs": [
        {
          "internalType": "address",
          "name": "",
          "type": "address"
        },
        {
          "internalType": "address",
          "name": "from",
          "type": "address"
        },
        {
          "internalType": "uint256",
          "name": "tokenId",
          "type": "uint256"
        },
        {
          "internalType": "bytes",
          "name": "",
          "type": "bytes"
        }
      ],
      "name": "onERC721Received",
      "outputs": [
        {
          "internalType": "bytes4",
          "name": "",
          "type": "bytes4"
        }
      ],
      "stateMutability": "nonpayable",
      "type": "function"
    },
    {
      "inputs": [
        {
          "internalType": "uint256",
          "name": "",
          "type": "uint256"
        }
      ],
      "name": "tokenPool",
      "outputs": [
        {
          "internalType": "uint256",
          "name": "",
          "type": "uint256"
        }
      ],
      "stateMutability": "view",
      "type": "function"
    },
    {
      "inputs": [],
      "name": "withdraw",
      "outputs": [],
      "stateMutability": "nonpayable",
      "type": "function"
    }
  ],
  "bytecode": {
    "object": "0x60806040526c01431e0fae6d7217caa000000060005534801561002157600080fd5b5060405161062e38038061062e83398101604081905261004091610065565b600380546001600160a01b0319166001600160a01b0392909216919091179055610095565b60006020828403121561007757600080fd5b81516001600160a01b038116811461008e57600080fd5b9392505050565b61058a806100a46000396000f3fe608060405234801561001057600080fd5b50600436106100415760003560e01c8063150b7a02146100465780633ccfd60b14610077578063c40c11bb14610081575b600080fd5b6100596100543660046103ec565b6100a2565b6040516001600160e01b031990911681526020015b60405180910390f35b61007f610156565b005b61009461008f366004610487565b61038a565b60405190815260200161006e565b60006100ac6103ab565b156100f05760405162461bcd60e51b815260206004820152600f60248201526e21b7b73a32b9ba1034b99037bb32b960891b60448201526064015b60405180910390fd5b6002805460018101825560009182527f405787fa12a823e0f2b7631cc41b3ba8828b3321ca811111fa75cd3aa3bb5ace0185905542905550600180546001600160a01b0386166001600160a01b0319909116179055630a85bd0160e11b95945050505050565b6001546001600160a01b031633146101a15760405162461bcd60e51b815260206004820152600e60248201526d2737ba103a3432903bb4b73732b960911b60448201526064016100e7565b6101a96103ab565b15156001146101fa5760405162461bcd60e51b815260206004820152601a60248201527f4e6f7420656e6f7567682074696d65206861732070617373656400000000000060448201526064016100e7565b6002545b801561037657600354600180546000926001600160a01b039081169230929091169060029061022d90876104b6565b8154811061023d5761023d6104cf565b6000918252602090912001546040516001600160a01b039384166024820152929091166044830152606482015260840160408051601f198184030181529181526020820180516001600160e01b031663314ae30d60e11b179052516102a291906104e5565b6000604051808303816000865af19150503d80600081146102df576040519150601f19603f3d011682016040523d82523d6000602084013e6102e4565b606091505b509091505060018115151461033b5760405162461bcd60e51b815260206004820152601f60248201527f4661696c656420746f207472616e73666572206261636b20746865204e46540060448201526064016100e7565b600280548061034c5761034c610514565b6001900381819060005260206000200160009055905550808061036e9061052a565b9150506101fe565b506c01431e0fae6d7217caa0000000600055565b6002818154811061039a57600080fd5b600091825260209091200154905081565b6000620151806000546103be9190610541565b42106103ca5750600190565b50600090565b80356001600160a01b03811681146103e757600080fd5b919050565b60008060008060006080868803121561040457600080fd5b61040d866103d0565b945061041b602087016103d0565b935060408601359250606086013567ffffffffffffffff8082111561043f57600080fd5b818801915088601f83011261045357600080fd5b81358181111561046257600080fd5b89602082850101111561047457600080fd5b9699959850939650602001949392505050565b60006020828403121561049957600080fd5b5035919050565b634e487b7160e01b600052601160045260246000fd5b818103818111156104c9576104c96104a0565b92915050565b634e487b7160e01b600052603260045260246000fd5b6000825160005b8181101561050657602081860181015185830152016104ec565b506000920191825250919050565b634e487b7160e01b600052603160045260246000fd5b600081610539576105396104a0565b506000190190565b808201808211156104c9576104c96104a056fea2646970667358221220516e3c5cb8db6899c9ec3d40b82118df8d9c3cfb9b16319f5030b430439e54bb64736f6c63430008110033",
    "linkReferences": {}
  },
  "methodIdentifiers": {
    "onERC721Received(address,address,uint256,bytes)": "150b7a02",
    "tokenPool(uint256)": "c40c11bb",
    "withdraw()": "3ccfd60b"
  },
  "id": 27
}