{
  "abi": [
    {
      "inputs": [],
      "stateMutability": "nonpayable",
      "type": "constructor"
    },
    {
      "anonymous": false,
      "inputs": [
        {
          "indexed": true,
          "internalType": "address",
          "name": "buyer",
          "type": "address"
        },
        {
          "indexed": true,
          "internalType": "address",
          "name": "nftAddress",
          "type": "address"
        },
        {
          "indexed": true,
          "internalType": "uint256",
          "name": "tokenId",
          "type": "uint256"
        },
        {
          "indexed": false,
          "internalType": "uint256",
          "name": "price",
          "type": "uint256"
        }
      ],
      "name": "NFTBought",
      "type": "event"
    },
    {
      "anonymous": false,
      "inputs": [
        {
          "indexed": true,
          "internalType": "address",
          "name": "seller",
          "type": "address"
        },
        {
          "indexed": true,
          "internalType": "address",
          "name": "nftAddress",
          "type": "address"
        },
        {
          "indexed": true,
          "internalType": "uint256",
          "name": "tokenId",
          "type": "uint256"
        }
      ],
      "name": "NFTCanceled",
      "type": "event"
    },
    {
      "anonymous": false,
      "inputs": [
        {
          "indexed": true,
          "internalType": "address",
          "name": "seller",
          "type": "address"
        },
        {
          "indexed": true,
          "internalType": "address",
          "name": "nftAddress",
          "type": "address"
        },
        {
          "indexed": true,
          "internalType": "uint256",
          "name": "tokenId",
          "type": "uint256"
        },
        {
          "indexed": false,
          "internalType": "uint256",
          "name": "price",
          "type": "uint256"
        }
      ],
      "name": "NFTListed",
      "type": "event"
    },
    {
      "anonymous": false,
      "inputs": [],
      "name": "SendFlag",
      "type": "event"
    },
    {
      "inputs": [
        {
          "internalType": "uint256",
          "name": "orderId",
          "type": "uint256"
        }
      ],
      "name": "cancelOrder",
      "outputs": [],
      "stateMutability": "nonpayable",
      "type": "function"
    },
    {
      "inputs": [
        {
          "internalType": "address",
          "name": "nftAddress",
          "type": "address"
        },
        {
          "internalType": "uint256",
          "name": "tokenId",
          "type": "uint256"
        },
        {
          "internalType": "uint256",
          "name": "price",
          "type": "uint256"
        }
      ],
      "name": "createOrder",
      "outputs": [
        {
          "internalType": "uint256",
          "name": "",
          "type": "uint256"
        }
      ],
      "stateMutability": "nonpayable",
      "type": "function"
    },
    {
      "inputs": [
        {
          "internalType": "uint256",
          "name": "orderId",
          "type": "uint256"
        }
      ],
      "name": "getOrder",
      "outputs": [
        {
          "components": [
            {
              "internalType": "address",
              "name": "nftAddress",
              "type": "address"
            },
            {
              "internalType": "uint256",
              "name": "tokenId",
              "type": "uint256"
            },
            {
              "internalType": "uint256",
              "name": "price",
              "type": "uint256"
            }
          ],
          "internalType": "struct Order",
          "name": "order",
          "type": "tuple"
        }
      ],
      "stateMutability": "view",
      "type": "function"
    },
    {
      "inputs": [
        {
          "internalType": "address",
          "name": "",
          "type": "address"
        },
        {
          "internalType": "address",
          "name": "",
          "type": "address"
        },
        {
          "internalType": "uint256",
          "name": "",
          "type": "uint256"
        },
        {
          "internalType": "bytes",
          "name": "",
          "type": "bytes"
        }
      ],
      "name": "onERC721Received",
      "outputs": [
        {
          "internalType": "bytes4",
          "name": "",
          "type": "bytes4"
        }
      ],
      "stateMutability": "pure",
      "type": "function"
    },
    {
      "inputs": [
        {
          "internalType": "uint256",
          "name": "orderId",
          "type": "uint256"
        }
      ],
      "name": "purchaseOrder",
      "outputs": [],
      "stateMutability": "nonpayable",
      "type": "function"
    },
    {
      "inputs": [
        {
          "internalType": "address",
          "name": "nftAddress",
          "type": "address"
        },
        {
          "internalType": "uint256",
          "name": "tokenId",
          "type": "uint256"
        },
        {
          "internalType": "uint256",
          "name": "price",
          "type": "uint256"
        }
      ],
      "name": "purchaseTest",
      "outputs": [],
      "stateMutability": "nonpayable",
      "type": "function"
    },
    {
      "inputs": [
        {
          "components": [
            {
              "components": [
                {
                  "internalType": "uint256",
                  "name": "orderId",
                  "type": "uint256"
                },
                {
                  "internalType": "uint256",
                  "name": "newprice",
                  "type": "uint256"
                },
                {
                  "internalType": "address",
                  "name": "issuer",
                  "type": "address"
                },
                {
                  "internalType": "address",
                  "name": "user",
                  "type": "address"
                },
                {
                  "internalType": "bytes",
                  "name": "reason",
                  "type": "bytes"
                }
              ],
              "internalType": "struct Coupon",
              "name": "coupon",
              "type": "tuple"
            },
            {
              "components": [
                {
                  "internalType": "uint8",
                  "name": "v",
                  "type": "uint8"
                },
                {
                  "internalType": "bytes32[2]",
                  "name": "rs",
                  "type": "bytes32[2]"
                }
              ],
              "internalType": "struct Signature",
              "name": "signature",
              "type": "tuple"
            }
          ],
          "internalType": "struct SignedCoupon",
          "name": "scoupon",
          "type": "tuple"
        }
      ],
      "name": "purchaseWithCoupon",
      "outputs": [],
      "stateMutability": "nonpayable",
      "type": "function"
    },
    {
      "inputs": [],
      "name": "tsNFT",
      "outputs": [
        {
          "internalType": "contract ThreeSigmaNFT",
          "name": "",
          "type": "address"
        }
      ],
      "stateMutability": "view",
      "type": "function"
    },
    {
      "inputs": [],
      "name": "tsToken",
      "outputs": [
        {
          "internalType": "contract ThreeSigmaToken",
          "name": "",
          "type": "address"
        }
      ],
      "stateMutability": "view",
      "type": "function"
    },
    {
      "inputs": [],
      "name": "verifier",
      "outputs": [
        {
          "internalType": "contract CouponVerifierBeta",
          "name": "",
          "type": "address"
        }
      ],
      "stateMutability": "view",
      "type": "function"
    },
    {
      "inputs": [],
      "name": "win",
      "outputs": [],
      "stateMutability": "nonpayable",
      "type": "function"
    }
  ],
  "bytecode": {
    "object": "0x60806040523480156200001157600080fd5b506040516200002090620004a5565b604051809103906000f0801580156200003d573d6000803e3d6000fd5b50600180546001600160a01b0319166001600160a01b0392909216918217905560405163095ea7b360e01b8152306004820152600019602482015263095ea7b3906044016020604051808303816000875af1158015620000a1573d6000803e3d6000fd5b505050506040513d601f19601f82011682018060405250810190620000c79190620004cf565b50604051620000d690620004b3565b604051809103906000f080158015620000f3573d6000803e3d6000fd5b5060008054610100600160a81b0319166101006001600160a01b03938416810291909117918290556040516340c10f1960e01b815291049091166004820181905260016024830152906340c10f1990604401600060405180830381600087803b1580156200016057600080fd5b505af115801562000175573d6000803e3d6000fd5b50506000546040516340c10f1960e01b8152306004820152600260248201526101009091046001600160a01b031692506340c10f199150604401600060405180830381600087803b158015620001ca57600080fd5b505af1158015620001df573d6000803e3d6000fd5b50506000546040516340c10f1960e01b8152306004820152600360248201526101009091046001600160a01b031692506340c10f199150604401600060405180830381600087803b1580156200023457600080fd5b505af115801562000249573d6000803e3d6000fd5b505050506040516200025b90620004c1565b604051809103906000f08015801562000278573d6000803e3d6000fd5b50600260006101000a8154816001600160a01b0302191690836001600160a01b0316021790555060036040518060600160405280600060019054906101000a90046001600160a01b03166001600160a01b03168152602001600181526020016001815250908060018154018082558091505060019003906000526020600020906003020160009091909190915060008201518160000160006101000a8154816001600160a01b0302191690836001600160a01b031602179055506020820151816001015560408201518160020155505060036040518060600160405280600060019054906101000a90046001600160a01b03166001600160a01b0316815260200160028152602001610539815250908060018154018082558091505060019003906000526020600020906003020160009091909190915060008201518160000160006101000a8154816001600160a01b0302191690836001600160a01b031602179055506020820151816001015560408201518160020155505060036040518060600160405280600060019054906101000a90046001600160a01b03166001600160a01b031681526020016003815260200164031aba8559815250908060018154018082558091505060019003906000526020600020906003020160009091909190915060008201518160000160006101000a8154816001600160a01b0302191690836001600160a01b0316021790555060208201518160010155604082015181600201555050620004fa565b610c9f80620018f483390190565b611856806200259383390190565b6108318062003de983390190565b600060208284031215620004e257600080fd5b81518015158114620004f357600080fd5b9392505050565b6113ea806200050a6000396000f3fe608060405234801561001057600080fd5b50600436106100a95760003560e01c80635764950f116100715780635764950f146101455780636495b228146101585780636bf037421461016b578063acfee8ed14610183578063b40da948146101a4578063d09ef241146101b757600080fd5b8063150b7a02146100ae5780632b7ac3f3146100ea57806339119e3014610115578063473ca96c14610128578063514fcac714610132575b600080fd5b6100cc6100bc366004611003565b630a85bd0160e11b949350505050565b6040516001600160e01b031990911681526020015b60405180910390f35b6002546100fd906001600160a01b031681565b6040516001600160a01b0390911681526020016100e1565b6001546100fd906001600160a01b031681565b6101306101f5565b005b61013061014036600461106f565b6103ad565b610130610153366004611088565b610455565b61013061016636600461106f565b6105d4565b6000546100fd9061010090046001600160a01b031681565b610196610191366004611088565b6107a7565b6040519081526020016100e1565b6101306101b23660046110bd565b610938565b6101ca6101c536600461106f565b610c2a565b6040805182516001600160a01b031681526020808401519082015291810151908201526060016100e1565b6000546040516331a9108f60e11b815260016004820152339161010090046001600160a01b031690636352211e90602401602060405180830381865afa158015610243573d6000803e3d6000fd5b505050506040513d601f19601f8201168201806040525081019061026791906110ff565b6001600160a01b03161480156102f557506000546040516331a9108f60e11b815260026004820152339161010090046001600160a01b031690636352211e90602401602060405180830381865afa1580156102c6573d6000803e3d6000fd5b505050506040513d601f19601f820116820180604052508101906102ea91906110ff565b6001600160a01b0316145b801561037957506000546040516331a9108f60e11b815260036004820152339161010090046001600160a01b031690636352211e90602401602060405180830381865afa15801561034a573d6000803e3d6000fd5b505050506040513d601f19601f8201168201806040525081019061036e91906110ff565b6001600160a01b0316145b61038257600080fd5b6040517f23ddb4dbb8577d03ebf1139a17a5c016963c43761e8ccd21eaa68e9b8ce6a68e90600090a1565b60006103b882610c2a565b90506103cd8160000151338360200151610cf6565b61040a5760405162461bcd60e51b81526020600482015260096024820152682737ba1037bbb732b960b91b60448201526064015b60405180910390fd5b61041382610e7e565b602081015181516040516001600160a01b039091169033907f1fc64ec2285c9891a5f6513865cacc14559dbec84a1dd36395483a27fd06324d90600090a45050565b60005460ff16156104915760405162461bcd60e51b815260206004820152600660248201526515195cdd195960d21b6044820152606401610401565b6000805460ff1916600117815560405163acfee8ed60e01b81526001600160a01b03851660048201526024810184905260448101839052849190309063acfee8ed906064016020604051808303816000875af11580156104f5573d6000803e3d6000fd5b505050506040513d601f19601f82011682018060405250810190610519919061111c565b60405163095ea7b360e01b8152306004820152602481018690529091506001600160a01b0383169063095ea7b390604401600060405180830381600087803b15801561056457600080fd5b505af1158015610578573d6000803e3d6000fd5b5050604051630c92b64560e31b815260048101849052309250636495b2289150602401600060405180830381600087803b1580156105b557600080fd5b505af11580156105c9573d6000803e3d6000fd5b505050505050505050565b60006105df82610c2a565b90506105ea82610e7e565b805160208201516040516331a9108f60e11b81526000916001600160a01b03841691636352211e916106229160040190815260200190565b602060405180830381865afa15801561063f573d6000803e3d6000fd5b505050506040513d601f19601f8201168201806040525081019061066391906110ff565b60015460408086015190516323b872dd60e01b81529293506001600160a01b03909116916323b872dd9161069d9133918691600401611135565b6020604051808303816000875af11580156106bc573d6000803e3d6000fd5b505050506040513d601f19601f820116820180604052508101906106e09190611159565b506020830151604051632142170760e11b81526001600160a01b038416916342842e0e91610715918591339190600401611135565b600060405180830381600087803b15801561072f57600080fd5b505af1158015610743573d6000803e3d6000fd5b50505050826020015183600001516001600160a01b0316336001600160a01b03167f5a55b2d970d079d39ce4c5dc9ec6de52ebfc2bbcfc7466d62eea534ee8736673866040015160405161079991815260200190565b60405180910390a450505050565b60008082116107e85760405162461bcd60e51b815260206004820152600d60248201526c496e76616c696420707269636560981b6044820152606401610401565b6107f3843385610cf6565b61082b5760405162461bcd60e51b81526020600482015260096024820152682737ba1037bbb732b960b91b6044820152606401610401565b604080516060810182526001600160a01b03868116808352602080840188815284860188815260038054600181018255600082905296517fc2575a0e9e593c00f959f8c92f12db2869c3395a3b0502d05e2516446f71f85b9790910296870180546001600160a01b0319169190961617909455517fc2575a0e9e593c00f959f8c92f12db2869c3395a3b0502d05e2516446f71f85c85015591517fc2575a0e9e593c00f959f8c92f12db2869c3395a3b0502d05e2516446f71f85d909301929092559151848152859233917fbeab3a2bb824b124a8a1eb465eec003338d61b414db132d37e9b3a984fdcf010910160405180910390a46003546109309060019061117b565b949350505050565b600061094482806111a2565b61094d906111c2565b60608101519091506001600160a01b0316331461099b5760405162461bcd60e51b815260206004820152600c60248201526b24b73b30b634b2103ab9b2b960a11b6044820152606401610401565b60008160200151116109df5760405162461bcd60e51b815260206004820152600d60248201526c496e76616c696420707269636560981b6044820152606401610401565b600254604051632471e98f60e21b81526001600160a01b03909116906391c7a63c90610a0f9085906004016112b0565b600060405180830381600087803b158015610a2957600080fd5b505af1158015610a3d573d6000803e3d6000fd5b505050506000610a508260000151610c2a565b9050610a5f8260000151610e7e565b805160208201516040516331a9108f60e11b81526000916001600160a01b03841691636352211e91610a979160040190815260200190565b602060405180830381865afa158015610ab4573d6000803e3d6000fd5b505050506040513d601f19601f82011682018060405250810190610ad891906110ff565b600154606086015160208701516040516323b872dd60e01b81529394506001600160a01b03909216926323b872dd92610b179291869190600401611135565b6020604051808303816000875af1158015610b36573d6000803e3d6000fd5b505050506040513d601f19601f82011682018060405250810190610b5a9190611159565b5060608401516020840151604051632142170760e11b81526001600160a01b038516926342842e0e92610b939286929190600401611135565b600060405180830381600087803b158015610bad57600080fd5b505af1158015610bc1573d6000803e3d6000fd5b50505050826020015183600001516001600160a01b031685606001516001600160a01b03167f5a55b2d970d079d39ce4c5dc9ec6de52ebfc2bbcfc7466d62eea534ee87366738760200151604051610c1b91815260200190565b60405180910390a45050505050565b610c57604051806060016040528060006001600160a01b0316815260200160008152602001600081525090565b6003548210610c9a5760405162461bcd60e51b815260206004820152600f60248201526e125b9d985b1a59081bdc99195c9259608a1b6044820152606401610401565b60038281548110610cad57610cad611388565b600091825260209182902060408051606081018252600390930290910180546001600160a01b031683526001810154938301939093526002909201549181019190915292915050565b6040516331a9108f60e11b815260048101829052600090849082906001600160a01b03831690636352211e90602401602060405180830381865afa158015610d42573d6000803e3d6000fd5b505050506040513d601f19601f82011682018060405250810190610d6691906110ff565b9050806001600160a01b0316856001600160a01b03161480610df5575060405163e985e9c560e01b81526001600160a01b038281166004830152868116602483015283169063e985e9c590604401602060405180830381865afa158015610dd1573d6000803e3d6000fd5b505050506040513d601f19601f82011682018060405250810190610df59190611159565b80610e74575060405163020604bf60e21b8152600481018590526001600160a01b03808716919084169063081812fc90602401602060405180830381865afa158015610e45573d6000803e3d6000fd5b505050506040513d601f19601f82011682018060405250810190610e6991906110ff565b6001600160a01b0316145b9695505050505050565b60038054610e8e9060019061117b565b81548110610e9e57610e9e611388565b906000526020600020906003020160038281548110610ebf57610ebf611388565b600091825260209091208254600392830290910180546001600160a01b0319166001600160a01b0390921691909117815560018084015490820155600292830154920191909155805480610f1557610f1561139e565b60008281526020812060036000199093019283020180546001600160a01b03191681556001810182905560020155905550565b6001600160a01b0381168114610f5d57600080fd5b50565b634e487b7160e01b600052604160045260246000fd5b600082601f830112610f8757600080fd5b813567ffffffffffffffff80821115610fa257610fa2610f60565b604051601f8301601f19908116603f01168101908282118183101715610fca57610fca610f60565b81604052838152866020858801011115610fe357600080fd5b836020870160208301376000602085830101528094505050505092915050565b6000806000806080858703121561101957600080fd5b843561102481610f48565b9350602085013561103481610f48565b925060408501359150606085013567ffffffffffffffff81111561105757600080fd5b61106387828801610f76565b91505092959194509250565b60006020828403121561108157600080fd5b5035919050565b60008060006060848603121561109d57600080fd5b83356110a881610f48565b95602085013595506040909401359392505050565b6000602082840312156110cf57600080fd5b813567ffffffffffffffff8111156110e657600080fd5b8201608081850312156110f857600080fd5b9392505050565b60006020828403121561111157600080fd5b81516110f881610f48565b60006020828403121561112e57600080fd5b5051919050565b6001600160a01b039384168152919092166020820152604081019190915260600190565b60006020828403121561116b57600080fd5b815180151581146110f857600080fd5b8181038181111561119c57634e487b7160e01b600052601160045260246000fd5b92915050565b60008235609e198336030181126111b857600080fd5b9190910192915050565b600060a082360312156111d457600080fd5b60405160a0810167ffffffffffffffff82821081831117156111f8576111f8610f60565b8160405284358352602085013560208401526040850135915061121a82610f48565b8160408401526060850135915061123082610f48565b816060840152608085013591508082111561124a57600080fd5b5061125736828601610f76565b60808301525092915050565b81835281816020850137506000828201602090810191909152601f909101601f19169091010190565b803560ff811680821461129e57600080fd5b83525060406020828101908401375050565b6020815260008235609e198436030181126112ca57600080fd5b838101905060806020840152803560a0840152602081013560c084015260408101356112f581610f48565b6001600160a01b0390811660e085015260608201359061131482610f48565b16610100840152608081013536829003601e1901811261133357600080fd5b0160208101903567ffffffffffffffff81111561134f57600080fd5b80360382131561135e57600080fd5b60a061012085015261137561014085018284611263565b9150506110f8604084016020860161128c565b634e487b7160e01b600052603260045260246000fd5b634e487b7160e01b600052603160045260246000fdfea2646970667358221220437d2038183cc9653cacf21ca2a15483675e2bd952f5a5073d533b468081a15264736f6c6343000811003360806040523480156200001157600080fd5b506040518060400160405280600f81526020016e2a343932b2a9b4b3b6b0aa37b5b2b760891b815250604051806040016040528060038152602001621514d560ea1b815250816003908162000067919062000213565b50600462000076828262000213565b505050620000903064174876e800620000a460201b60201c565b6200009e33610539620000a4565b62000307565b6001600160a01b038216620000ff5760405162461bcd60e51b815260206004820152601f60248201527f45524332303a206d696e7420746f20746865207a65726f206164647265737300604482015260640160405180910390fd5b8060026000828254620001139190620002df565b90915550506001600160a01b038216600081815260208181526040808320805486019055518481527fddf252ad1be2c89b69c2b068fc378daa952ba7f163c4a11628f55a4df523b3ef910160405180910390a35050565b505050565b634e487b7160e01b600052604160045260246000fd5b600181811c908216806200019a57607f821691505b602082108103620001bb57634e487b7160e01b600052602260045260246000fd5b50919050565b601f8211156200016a57600081815260208120601f850160051c81016020861015620001ea5750805b601f850160051c820191505b818110156200020b57828155600101620001f6565b505050505050565b81516001600160401b038111156200022f576200022f6200016f565b620002478162000240845462000185565b84620001c1565b602080601f8311600181146200027f5760008415620002665750858301515b600019600386901b1c1916600185901b1785556200020b565b600085815260208120601f198616915b82811015620002b0578886015182559484019460019091019084016200028f565b5085821015620002cf5787850151600019600388901b60f8161c191681555b5050505050600190811b01905550565b808201808211156200030157634e487b7160e01b600052601160045260246000fd5b92915050565b61098880620003176000396000f3fe608060405234801561001057600080fd5b50600436106100b45760003560e01c80633950935111610071578063395093511461013857806370a082311461014b57806395d89b4114610174578063a457c2d71461017c578063a9059cbb1461018f578063dd62ed3e146101a257600080fd5b806306fdde03146100b9578063095ea7b3146100d757806318160ddd146100fa57806323b872dd1461010c578063313ce5671461011f5780633884d6351461012e575b600080fd5b6100c16101b5565b6040516100ce91906107d2565b60405180910390f35b6100ea6100e536600461083c565b610247565b60405190151581526020016100ce565b6002545b6040519081526020016100ce565b6100ea61011a366004610866565b610261565b604051601281526020016100ce565b610136610285565b005b6100ea61014636600461083c565b6102ec565b6100fe6101593660046108a2565b6001600160a01b031660009081526020819052604090205490565b6100c161030e565b6100ea61018a36600461083c565b61031d565b6100ea61019d36600461083c565b610398565b6100fe6101b03660046108c4565b6103a6565b6060600380546101c4906108f7565b80601f01602080910402602001604051908101604052809291908181526020018280546101f0906108f7565b801561023d5780601f106102125761010080835404028352916020019161023d565b820191906000526020600020905b81548152906001019060200180831161022057829003601f168201915b5050505050905090565b6000336102558185856103d1565b60019150505b92915050565b60003361026f8582856104f5565b61027a85858561056f565b506001949350505050565b60055460ff16156102d25760405162461bcd60e51b8152602060048201526012602482015271105b1c9958591e48185a5c991c9bdc1c195960721b60448201526064015b60405180910390fd5b6005805460ff191660011781556102ea903390610713565b565b6000336102558185856102ff83836103a6565b6103099190610931565b6103d1565b6060600480546101c4906108f7565b6000338161032b82866103a6565b90508381101561038b5760405162461bcd60e51b815260206004820152602560248201527f45524332303a2064656372656173656420616c6c6f77616e63652062656c6f77604482015264207a65726f60d81b60648201526084016102c9565b61027a82868684036103d1565b60003361025581858561056f565b6001600160a01b03918216600090815260016020908152604080832093909416825291909152205490565b6001600160a01b0383166104335760405162461bcd60e51b8152602060048201526024808201527f45524332303a20617070726f76652066726f6d20746865207a65726f206164646044820152637265737360e01b60648201526084016102c9565b6001600160a01b0382166104945760405162461bcd60e51b815260206004820152602260248201527f45524332303a20617070726f766520746f20746865207a65726f206164647265604482015261737360f01b60648201526084016102c9565b6001600160a01b0383811660008181526001602090815260408083209487168084529482529182902085905590518481527f8c5be1e5ebec7d5bd14f71427d1e84f3dd0314c0f7b2291e5b200ac8c7c3b925910160405180910390a3505050565b600061050184846103a6565b90506000198114610569578181101561055c5760405162461bcd60e51b815260206004820152601d60248201527f45524332303a20696e73756666696369656e7420616c6c6f77616e636500000060448201526064016102c9565b61056984848484036103d1565b50505050565b6001600160a01b0383166105d35760405162461bcd60e51b815260206004820152602560248201527f45524332303a207472616e736665722066726f6d20746865207a65726f206164604482015264647265737360d81b60648201526084016102c9565b6001600160a01b0382166106355760405162461bcd60e51b815260206004820152602360248201527f45524332303a207472616e7366657220746f20746865207a65726f206164647260448201526265737360e81b60648201526084016102c9565b6001600160a01b038316600090815260208190526040902054818110156106ad5760405162461bcd60e51b815260206004820152602660248201527f45524332303a207472616e7366657220616d6f756e7420657863656564732062604482015265616c616e636560d01b60648201526084016102c9565b6001600160a01b03848116600081815260208181526040808320878703905593871680835291849020805487019055925185815290927fddf252ad1be2c89b69c2b068fc378daa952ba7f163c4a11628f55a4df523b3ef910160405180910390a3610569565b6001600160a01b0382166107695760405162461bcd60e51b815260206004820152601f60248201527f45524332303a206d696e7420746f20746865207a65726f20616464726573730060448201526064016102c9565b806002600082825461077b9190610931565b90915550506001600160a01b038216600081815260208181526040808320805486019055518481527fddf252ad1be2c89b69c2b068fc378daa952ba7f163c4a11628f55a4df523b3ef910160405180910390a35050565b600060208083528351808285015260005b818110156107ff578581018301518582016040015282016107e3565b506000604082860101526040601f19601f8301168501019250505092915050565b80356001600160a01b038116811461083757600080fd5b919050565b6000806040838503121561084f57600080fd5b61085883610820565b946020939093013593505050565b60008060006060848603121561087b57600080fd5b61088484610820565b925061089260208501610820565b9150604084013590509250925092565b6000602082840312156108b457600080fd5b6108bd82610820565b9392505050565b600080604083850312156108d757600080fd5b6108e083610820565b91506108ee60208401610820565b90509250929050565b600181811c9082168061090b57607f821691505b60208210810361092b57634e487b7160e01b600052602260045260246000fd5b50919050565b8082018082111561025b57634e487b7160e01b600052601160045260246000fdfea26469706673582212206b9a6c5e1e10fe8951099a87dc15af7481c5c3753db2324cc2743204aa88468f64736f6c6343000811003360806040523480156200001157600080fd5b506040518060400160405280600d81526020016c151a1c995954da59db58539195609a1b815250604051806040016040528060058152602001641514d3919560da1b815250816000908162000067919062000275565b50600162000076828262000275565b505050620000936200008d620000a760201b60201c565b620000ab565b620000a130336001620000fd565b62000341565b3390565b600680546001600160a01b038381166001600160a01b0319831681179093556040519116919082907f8be0079c531659141344cd1fd0a4f28419497f9722a3daafe3b4186f6b6457e090600090a35050565b816001600160a01b0316836001600160a01b031603620001635760405162461bcd60e51b815260206004820152601960248201527f4552433732313a20617070726f766520746f2063616c6c657200000000000000604482015260640160405180910390fd5b6001600160a01b03838116600081815260056020908152604080832094871680845294825291829020805460ff191686151590811790915591519182527f17307eab39ab6107e8899845ad3d59bd9653f200f220920489ca2b5937696c31910160405180910390a3505050565b634e487b7160e01b600052604160045260246000fd5b600181811c90821680620001fb57607f821691505b6020821081036200021c57634e487b7160e01b600052602260045260246000fd5b50919050565b601f8211156200027057600081815260208120601f850160051c810160208610156200024b5750805b601f850160051c820191505b818110156200026c5782815560010162000257565b5050505b505050565b81516001600160401b03811115620002915762000291620001d0565b620002a981620002a28454620001e6565b8462000222565b602080601f831160018114620002e15760008415620002c85750858301515b600019600386901b1c1916600185901b1785556200026c565b600085815260208120601f198616915b828110156200031257888601518255948401946001909101908401620002f1565b5085821015620003315787850151600019600388901b60f8161c191681555b5050505050600190811b01905550565b61150580620003516000396000f3fe608060405234801561001057600080fd5b506004361061010b5760003560e01c806370a08231116100a2578063a22cb46511610071578063a22cb4651461021b578063b88d4fde1461022e578063c87b56dd14610241578063e985e9c514610254578063f2fde38b1461026757600080fd5b806370a08231146101d9578063715018a6146101fa5780638da5cb5b1461020257806395d89b411461021357600080fd5b806323b872dd116100de57806323b872dd1461018d57806340c10f19146101a057806342842e0e146101b35780636352211e146101c657600080fd5b806301ffc9a71461011057806306fdde0314610138578063081812fc1461014d578063095ea7b314610178575b600080fd5b61012361011e366004611055565b61027a565b60405190151581526020015b60405180910390f35b6101406102cc565b60405161012f91906110c2565b61016061015b3660046110d5565b61035e565b6040516001600160a01b03909116815260200161012f565b61018b61018636600461110a565b610385565b005b61018b61019b366004611134565b61049f565b61018b6101ae36600461110a565b6104d0565b61018b6101c1366004611134565b6104e6565b6101606101d43660046110d5565b610501565b6101ec6101e7366004611170565b610561565b60405190815260200161012f565b61018b6105e7565b6006546001600160a01b0316610160565b6101406105fb565b61018b61022936600461118b565b61060a565b61018b61023c3660046111dd565b610615565b61014061024f3660046110d5565b61064d565b6101236102623660046112b9565b6106c1565b61018b610275366004611170565b6106ef565b60006001600160e01b031982166380ac58cd60e01b14806102ab57506001600160e01b03198216635b5e139f60e01b145b806102c657506301ffc9a760e01b6001600160e01b03198316145b92915050565b6060600080546102db906112ec565b80601f0160208091040260200160405190810160405280929190818152602001828054610307906112ec565b80156103545780601f1061032957610100808354040283529160200191610354565b820191906000526020600020905b81548152906001019060200180831161033757829003601f168201915b5050505050905090565b600061036982610768565b506000908152600460205260409020546001600160a01b031690565b600061039082610501565b9050806001600160a01b0316836001600160a01b0316036104025760405162461bcd60e51b815260206004820152602160248201527f4552433732313a20617070726f76616c20746f2063757272656e74206f776e656044820152603960f91b60648201526084015b60405180910390fd5b336001600160a01b038216148061041e575061041e81336106c1565b6104905760405162461bcd60e51b815260206004820152603d60248201527f4552433732313a20617070726f76652063616c6c6572206973206e6f7420746f60448201527f6b656e206f776e6572206f7220617070726f76656420666f7220616c6c00000060648201526084016103f9565b61049a83836107c7565b505050565b6104a93382610835565b6104c55760405162461bcd60e51b81526004016103f990611326565b61049a838383610894565b6104d8610a05565b6104e28282610a5f565b5050565b61049a83838360405180602001604052806000815250610615565b6000818152600260205260408120546001600160a01b0316806102c65760405162461bcd60e51b8152602060048201526018602482015277115490cdcc8c4e881a5b9d985b1a59081d1bdad95b88125160421b60448201526064016103f9565b60006001600160a01b0382166105cb5760405162461bcd60e51b815260206004820152602960248201527f4552433732313a2061646472657373207a65726f206973206e6f7420612076616044820152683634b21037bbb732b960b91b60648201526084016103f9565b506001600160a01b031660009081526003602052604090205490565b6105ef610a05565b6105f96000610bf8565b565b6060600180546102db906112ec565b6104e2338383610c4a565b61061f3383610835565b61063b5760405162461bcd60e51b81526004016103f990611326565b61064784848484610d18565b50505050565b606061065882610768565b600061066f60408051602081019091526000815290565b9050600081511161068f57604051806020016040528060008152506106ba565b8061069984610d4b565b6040516020016106aa929190611373565b6040516020818303038152906040525b9392505050565b6001600160a01b03918216600090815260056020908152604080832093909416825291909152205460ff1690565b6106f7610a05565b6001600160a01b03811661075c5760405162461bcd60e51b815260206004820152602660248201527f4f776e61626c653a206e6577206f776e657220697320746865207a65726f206160448201526564647265737360d01b60648201526084016103f9565b61076581610bf8565b50565b6000818152600260205260409020546001600160a01b03166107655760405162461bcd60e51b8152602060048201526018602482015277115490cdcc8c4e881a5b9d985b1a59081d1bdad95b88125160421b60448201526064016103f9565b600081815260046020526040902080546001600160a01b0319166001600160a01b03841690811790915581906107fc82610501565b6001600160a01b03167f8c5be1e5ebec7d5bd14f71427d1e84f3dd0314c0f7b2291e5b200ac8c7c3b92560405160405180910390a45050565b60008061084183610501565b9050806001600160a01b0316846001600160a01b03161480610868575061086881856106c1565b8061088c5750836001600160a01b03166108818461035e565b6001600160a01b0316145b949350505050565b826001600160a01b03166108a782610501565b6001600160a01b0316146108cd5760405162461bcd60e51b81526004016103f9906113a2565b6001600160a01b03821661092f5760405162461bcd60e51b8152602060048201526024808201527f4552433732313a207472616e7366657220746f20746865207a65726f206164646044820152637265737360e01b60648201526084016103f9565b61093c8383836001610dde565b826001600160a01b031661094f82610501565b6001600160a01b0316146109755760405162461bcd60e51b81526004016103f9906113a2565b600081815260046020908152604080832080546001600160a01b03199081169091556001600160a01b0387811680865260038552838620805460001901905590871680865283862080546001019055868652600290945282852080549092168417909155905184937fddf252ad1be2c89b69c2b068fc378daa952ba7f163c4a11628f55a4df523b3ef91a4505050565b6006546001600160a01b031633146105f95760405162461bcd60e51b815260206004820181905260248201527f4f776e61626c653a2063616c6c6572206973206e6f7420746865206f776e657260448201526064016103f9565b6001600160a01b038216610ab55760405162461bcd60e51b815260206004820181905260248201527f4552433732313a206d696e7420746f20746865207a65726f206164647265737360448201526064016103f9565b6000818152600260205260409020546001600160a01b031615610b1a5760405162461bcd60e51b815260206004820152601c60248201527f4552433732313a20746f6b656e20616c7265616479206d696e7465640000000060448201526064016103f9565b610b28600083836001610dde565b6000818152600260205260409020546001600160a01b031615610b8d5760405162461bcd60e51b815260206004820152601c60248201527f4552433732313a20746f6b656e20616c7265616479206d696e7465640000000060448201526064016103f9565b6001600160a01b038216600081815260036020908152604080832080546001019055848352600290915280822080546001600160a01b0319168417905551839291907fddf252ad1be2c89b69c2b068fc378daa952ba7f163c4a11628f55a4df523b3ef908290a45050565b600680546001600160a01b038381166001600160a01b0319831681179093556040519116919082907f8be0079c531659141344cd1fd0a4f28419497f9722a3daafe3b4186f6b6457e090600090a35050565b816001600160a01b0316836001600160a01b031603610cab5760405162461bcd60e51b815260206004820152601960248201527f4552433732313a20617070726f766520746f2063616c6c65720000000000000060448201526064016103f9565b6001600160a01b03838116600081815260056020908152604080832094871680845294825291829020805460ff191686151590811790915591519182527f17307eab39ab6107e8899845ad3d59bd9653f200f220920489ca2b5937696c31910160405180910390a3505050565b610d23848484610894565b610d2f84848484610e66565b6106475760405162461bcd60e51b81526004016103f9906113e7565b60606000610d5883610f67565b600101905060008167ffffffffffffffff811115610d7857610d786111c7565b6040519080825280601f01601f191660200182016040528015610da2576020820181803683370190505b5090508181016020015b600019016f181899199a1a9b1b9c1cb0b131b232b360811b600a86061a8153600a8504945084610dac57509392505050565b6001811115610647576001600160a01b03841615610e24576001600160a01b03841660009081526003602052604081208054839290610e1e90849061144f565b90915550505b6001600160a01b03831615610647576001600160a01b03831660009081526003602052604081208054839290610e5b908490611462565b909155505050505050565b60006001600160a01b0384163b15610f5c57604051630a85bd0160e11b81526001600160a01b0385169063150b7a0290610eaa903390899088908890600401611475565b6020604051808303816000875af1925050508015610ee5575060408051601f3d908101601f19168201909252610ee2918101906114b2565b60015b610f42573d808015610f13576040519150601f19603f3d011682016040523d82523d6000602084013e610f18565b606091505b508051600003610f3a5760405162461bcd60e51b81526004016103f9906113e7565b805181602001fd5b6001600160e01b031916630a85bd0160e11b14905061088c565b506001949350505050565b60008072184f03e93ff9f4daa797ed6e38ed64bf6a1f0160401b8310610fa65772184f03e93ff9f4daa797ed6e38ed64bf6a1f0160401b830492506040015b6d04ee2d6d415b85acef81000000008310610fd2576d04ee2d6d415b85acef8100000000830492506020015b662386f26fc100008310610ff057662386f26fc10000830492506010015b6305f5e1008310611008576305f5e100830492506008015b612710831061101c57612710830492506004015b6064831061102e576064830492506002015b600a83106102c65760010192915050565b6001600160e01b03198116811461076557600080fd5b60006020828403121561106757600080fd5b81356106ba8161103f565b60005b8381101561108d578181015183820152602001611075565b50506000910152565b600081518084526110ae816020860160208601611072565b601f01601f19169290920160200192915050565b6020815260006106ba6020830184611096565b6000602082840312156110e757600080fd5b5035919050565b80356001600160a01b038116811461110557600080fd5b919050565b6000806040838503121561111d57600080fd5b611126836110ee565b946020939093013593505050565b60008060006060848603121561114957600080fd5b611152846110ee565b9250611160602085016110ee565b9150604084013590509250925092565b60006020828403121561118257600080fd5b6106ba826110ee565b6000806040838503121561119e57600080fd5b6111a7836110ee565b9150602083013580151581146111bc57600080fd5b809150509250929050565b634e487b7160e01b600052604160045260246000fd5b600080600080608085870312156111f357600080fd5b6111fc856110ee565b935061120a602086016110ee565b925060408501359150606085013567ffffffffffffffff8082111561122e57600080fd5b818701915087601f83011261124257600080fd5b813581811115611254576112546111c7565b604051601f8201601f19908116603f0116810190838211818310171561127c5761127c6111c7565b816040528281528a602084870101111561129557600080fd5b82602086016020830137600060208483010152809550505050505092959194509250565b600080604083850312156112cc57600080fd5b6112d5836110ee565b91506112e3602084016110ee565b90509250929050565b600181811c9082168061130057607f821691505b60208210810361132057634e487b7160e01b600052602260045260246000fd5b50919050565b6020808252602d908201527f4552433732313a2063616c6c6572206973206e6f7420746f6b656e206f776e6560408201526c1c881bdc88185c1c1c9bdd9959609a1b606082015260800190565b60008351611385818460208801611072565b835190830190611399818360208801611072565b01949350505050565b60208082526025908201527f4552433732313a207472616e736665722066726f6d20696e636f72726563742060408201526437bbb732b960d91b606082015260800190565b60208082526032908201527f4552433732313a207472616e7366657220746f206e6f6e20455243373231526560408201527131b2b4bb32b91034b6b83632b6b2b73a32b960711b606082015260800190565b634e487b7160e01b600052601160045260246000fd5b818103818111156102c6576102c6611439565b808201808211156102c6576102c6611439565b6001600160a01b03858116825284166020820152604081018390526080606082018190526000906114a890830184611096565b9695505050505050565b6000602082840312156114c457600080fd5b81516106ba8161103f56fea26469706673582212206e22d3f8464e996f3809be1553ae3a9b5db4081289b2b0a48d8c07e28bc3b22964736f6c63430008110033608060405234801561001057600080fd5b50600080546001600160a01b031916331790556107ff806100326000396000f3fe608060405234801561001057600080fd5b506004361061002b5760003560e01c806391c7a63c14610030575b600080fd5b61004361003e366004610351565b610045565b005b600054600160a01b900460ff161561008d5760405162461bcd60e51b815260206004820152600660248201526515195cdd195960d21b60448201526064015b60405180910390fd5b6000805460ff60a01b1916600160a01b1781556100aa8280610393565b6100b39061045e565b905060006100c936849003840160208501610534565b60008054845160405163d09ef24160e01b8152600481019190915292935090916001600160a01b039091169063d09ef24190602401606060405180830381865afa15801561011b573d6000803e3d6000fd5b505050506040513d601f19601f8201168201806040525081019061013f91906105b8565b9050600083604001518460600151838660200151876080015160405160200161016c959493929190610660565b60408051808303601f1901815290829052835160208501516331a9108f60e11b84526004840152909250906000906001600160a01b03831690636352211e90602401602060405180830381865afa1580156101cb573d6000803e3d6000fd5b505050506040513d601f19601f820116820180604052508101906101ef9190610796565b9050806001600160a01b031686604001516001600160a01b0316146102475760405162461bcd60e51b815260206004820152600e60248201526d24b73b30b634b21034b9b9bab2b960911b6044820152606401610084565b85604001516001600160a01b0316600184805190602001208760000151886020015160006002811061027b5761027b6107b3565b60200201518960200151600160028110610297576102976107b3565b6020020151604051600081526020016040526040516102d2949392919093845260ff9290921660208401526040830152606082015260800190565b6020604051602081039080840390855afa1580156102f4573d6000803e3d6000fd5b505050602060405103516001600160a01b0316146103485760405162461bcd60e51b8152602060048201526011602482015270496e76616c6964207369676e617475726560781b6044820152606401610084565b50505050505050565b60006020828403121561036357600080fd5b813567ffffffffffffffff81111561037a57600080fd5b82016080818503121561038c57600080fd5b9392505050565b60008235609e198336030181126103a957600080fd5b9190910192915050565b634e487b7160e01b600052604160045260246000fd5b60405160a0810167ffffffffffffffff811182821017156103ec576103ec6103b3565b60405290565b6040805190810167ffffffffffffffff811182821017156103ec576103ec6103b3565b604051601f8201601f1916810167ffffffffffffffff8111828210171561043e5761043e6103b3565b604052919050565b6001600160a01b038116811461045b57600080fd5b50565b600060a0823603121561047057600080fd5b6104786103c9565b8235815260208084013581830152604084013561049481610446565b604083015260608401356104a781610446565b6060830152608084013567ffffffffffffffff808211156104c757600080fd5b9085019036601f8301126104da57600080fd5b8135818111156104ec576104ec6103b3565b6104fe601f8201601f19168501610415565b9150808252368482850101111561051457600080fd5b808484018584013760009082019093019290925250608082015292915050565b60006060828403121561054657600080fd5b61054e6103f2565b823560ff8116811461055f57600080fd5b81526020603f8401851361057257600080fd5b61057a6103f2565b80606086018781111561058c57600080fd5b8387015b818110156105a75780358452928401928401610590565b505091830191909152509392505050565b6000606082840312156105ca57600080fd5b6040516060810181811067ffffffffffffffff821117156105ed576105ed6103b3565b60405282516105fb81610446565b8152602083810151908201526040928301519281019290925250919050565b6000815180845260005b8181101561064057602081850181015186830182015201610624565b506000602082860101526020601f19601f83011685010191505092915050565b610180808252600d908201526c2496103a34329034b9b9bab2b960991b6101a08201526001600160a01b038616602082015260006101c08060408401526106d3818401601c81527f6f666665722061207370656369616c20646973636f756e7420666f7200000000602082015260400190565b6001600160a01b0388166060850152905082810360808401526006815265746f2062757960d01b60208201526040810186516001600160a01b031660a0850152602087015160c0850152604087015160e085015290508281036101008401526002815261185d60f21b6020820152604081019050846101208401528281036101408401526107758160078152666265636175736560c81b602082015260400190565b905082810361016084015261078a818561061a565b98975050505050505050565b6000602082840312156107a857600080fd5b815161038c81610446565b634e487b7160e01b600052603260045260246000fdfea26469706673582212203e701199e7444784d2dd0eed9417e030da833d9eb5df02f28ca3e75908612b9064736f6c63430008110033",
    "linkReferences": {}
  },
  "methodIdentifiers": {
    "cancelOrder(uint256)": "514fcac7",
    "createOrder(address,uint256,uint256)": "acfee8ed",
    "getOrder(uint256)": "d09ef241",
    "onERC721Received(address,address,uint256,bytes)": "150b7a02",
    "purchaseOrder(uint256)": "6495b228",
    "purchaseTest(address,uint256,uint256)": "5764950f",
    "purchaseWithCoupon(((uint256,uint256,address,address,bytes),(uint8,bytes32[2])))": "b40da948",
    "tsNFT()": "6bf03742",
    "tsToken()": "39119e30",
    "verifier()": "2b7ac3f3",
    "win()": "473ca96c"
  },
  "id": 31
}