{
  "abi": [
    {
      "inputs": [],
      "stateMutability": "nonpayable",
      "type": "constructor"
    },
    {
      "inputs": [
        {
          "internalType": "address",
          "name": "newOwner",
          "type": "address"
        },
        {
          "internalType": "uint256",
          "name": "numberOfTokens",
          "type": "uint256"
        }
      ],
      "name": "airdropBatch",
      "outputs": [],
      "stateMutability": "nonpayable",
      "type": "function"
    }
  ],
  "bytecode": {
    "object": "0x6080604052600080546001600160a01b0319166220e8bf17815560025534801561002857600080fd5b5060405161003590610077565b604051809103906000f080158015610051573d6000803e3d6000fd5b50600180546001600160a01b0319166001600160a01b0392909216919091179055610084565b61190a8061022083390190565b61018d806100936000396000f3fe608060405234801561001057600080fd5b506004361061002b5760003560e01c80638045cb0f14610030575b600080fd5b61004361003e3660046100d7565b610045565b005b60005b6100528282610125565b8110156100d2576001546040516340c10f1960e01b81526001600160a01b03858116600483015260248201849052909116906340c10f1990604401600060405180830381600087803b1580156100a757600080fd5b505af11580156100bb573d6000803e3d6000fd5b5050505080806100ca9061013e565b915050610048565b505050565b600080604083850312156100ea57600080fd5b82356001600160a01b038116811461010157600080fd5b946020939093013593505050565b634e487b7160e01b600052601160045260246000fd5b808201808211156101385761013861010f565b92915050565b6000600182016101505761015061010f565b506001019056fea2646970667358221220ac9872a5f21046242774c4a1b033624cbe4214c1b2d320b51516070ad3f03e1e64736f6c6343000811003360806040523480156200001157600080fd5b506040518060400160405280600d81526020016c151a1c995954da59db58539195609a1b815250604051806040016040528060048152602001633353494760e01b815250816000908162000066919062000140565b50600162000075828262000140565b5050662386f26fc1000060075550600880546001600160a01b031916331790556200020c565b634e487b7160e01b600052604160045260246000fd5b600181811c90821680620000c657607f821691505b602082108103620000e757634e487b7160e01b600052602260045260246000fd5b50919050565b601f8211156200013b57600081815260208120601f850160051c81016020861015620001165750805b601f850160051c820191505b81811015620001375782815560010162000122565b5050505b505050565b81516001600160401b038111156200015c576200015c6200009b565b62000174816200016d8454620000b1565b84620000ed565b602080601f831160018114620001ac5760008415620001935750858301515b600019600386901b1c1916600185901b17855562000137565b600085815260208120601f198616915b82811015620001dd57888601518255948401946001909101908401620001bc565b5085821015620001fc5787850151600019600388901b60f8161c191681555b5050505050600190811b01905550565b6116ee806200021c6000396000f3fe60806040526004361061010d5760003560e01c80636352211e11610095578063b88d4fde11610064578063b88d4fde14610348578063c7876ea414610368578063c87b56dd1461037e578063dd62b0391461039e578063e985e9c5146103b157600080fd5b80636352211e146102c557806370a08231146102e557806395d89b4114610313578063a22cb4651461032857600080fd5b8063096c5e1a116100dc578063096c5e1a1461022557806323b872dd1461024557806340c10f191461026557806342842e0e146102855780636295c61a146102a557600080fd5b806301ffc9a71461017457806306fdde03146101a9578063081812fc146101cb578063095ea7b31461020357600080fd5b3661016f577fdd970dd9b5bfe707922155b058a407655cb18288b807e2216442bca8ad83d6b55a60405161016591906040808252600790820152667265636569766560c81b6060820152602081019190915260800190565b60405180910390a1005b600080fd5b34801561018057600080fd5b5061019461018f36600461123b565b6103d1565b60405190151581526020015b60405180910390f35b3480156101b557600080fd5b506101be610423565b6040516101a091906112a8565b3480156101d757600080fd5b506101eb6101e63660046112bb565b6104b5565b6040516001600160a01b0390911681526020016101a0565b34801561020f57600080fd5b5061022361021e3660046112e9565b6104dc565b005b34801561023157600080fd5b506102236102403660046112e9565b6105f6565b34801561025157600080fd5b50610223610260366004611315565b610636565b34801561027157600080fd5b506102236102803660046112e9565b610667565b34801561029157600080fd5b506102236102a0366004611315565b61068c565b3480156102b157600080fd5b506102236102c0366004611315565b6106a7565b3480156102d157600080fd5b506101eb6102e03660046112bb565b6106c2565b3480156102f157600080fd5b50610305610300366004611356565b610722565b6040519081526020016101a0565b34801561031f57600080fd5b506101be6107a8565b34801561033457600080fd5b50610223610343366004611373565b6107b7565b34801561035457600080fd5b506102236103633660046113c7565b6107c2565b34801561037457600080fd5b5061030560075481565b34801561038a57600080fd5b506101be6103993660046112bb565b6107fa565b6103056103ac366004611356565b61086e565b3480156103bd57600080fd5b506101946103cc3660046114a7565b610926565b60006001600160e01b031982166380ac58cd60e01b148061040257506001600160e01b03198216635b5e139f60e01b145b8061041d57506301ffc9a760e01b6001600160e01b03198316145b92915050565b606060008054610432906114d5565b80601f016020809104026020016040519081016040528092919081815260200182805461045e906114d5565b80156104ab5780601f10610480576101008083540402835291602001916104ab565b820191906000526020600020905b81548152906001019060200180831161048e57829003601f168201915b5050505050905090565b60006104c082610954565b506000908152600460205260409020546001600160a01b031690565b60006104e7826106c2565b9050806001600160a01b0316836001600160a01b0316036105595760405162461bcd60e51b815260206004820152602160248201527f4552433732313a20617070726f76616c20746f2063757272656e74206f776e656044820152603960f91b60648201526084015b60405180910390fd5b336001600160a01b038216148061057557506105758133610926565b6105e75760405162461bcd60e51b815260206004820152603d60248201527f4552433732313a20617070726f76652063616c6c6572206973206e6f7420746f60448201527f6b656e206f776e6572206f7220617070726f76656420666f7220616c6c0000006064820152608401610550565b6105f183836109b6565b505050565b6105ff81610a24565b6007546040516001600160a01b0384169180156108fc02916000818181858888f193505050501580156105f1573d6000803e3d6000fd5b6106403382610ac7565b61065c5760405162461bcd60e51b81526004016105509061150f565b6105f1838383610b26565b6008546001600160a01b0316331461067e57600080fd5b6106888282610c97565b5050565b6105f1838383604051806020016040528060008152506107c2565b6105f183838360405180602001604052806000815250610e30565b6000818152600260205260408120546001600160a01b03168061041d5760405162461bcd60e51b8152602060048201526018602482015277115490cdcc8c4e881a5b9d985b1a59081d1bdad95b88125160421b6044820152606401610550565b60006001600160a01b03821661078c5760405162461bcd60e51b815260206004820152602960248201527f4552433732313a2061646472657373207a65726f206973206e6f7420612076616044820152683634b21037bbb732b960b91b6064820152608401610550565b506001600160a01b031660009081526003602052604090205490565b606060018054610432906114d5565b610688338383610e63565b6107cc3383610ac7565b6107e85760405162461bcd60e51b81526004016105509061150f565b6107f484848484610e30565b50505050565b606061080582610954565b600061081c60408051602081019091526000815290565b9050600081511161083c5760405180602001604052806000815250610867565b8061084684610f31565b60405160200161085792919061155c565b6040516020818303038152906040525b9392505050565b60006007543410156108b75760405162461bcd60e51b8152602060048201526012602482015271496e73756669636369656e742066756e647360701b6044820152606401610550565b6108c5600680546001019055565b60006108d060065490565b90506108dc8382610c97565b826001600160a01b03166108fc600754346108f791906115a1565b6040518115909202916000818181858888f1935050505015801561091f573d6000803e3d6000fd5b5092915050565b6001600160a01b03918216600090815260056020908152604080832093909416825291909152205460ff1690565b6000818152600260205260409020546001600160a01b03166109b35760405162461bcd60e51b8152602060048201526018602482015277115490cdcc8c4e881a5b9d985b1a59081d1bdad95b88125160421b6044820152606401610550565b50565b600081815260046020526040902080546001600160a01b0319166001600160a01b03841690811790915581906109eb826106c2565b6001600160a01b03167f8c5be1e5ebec7d5bd14f71427d1e84f3dd0314c0f7b2291e5b200ac8c7c3b92560405160405180910390a45050565b6000610a2f826106c2565b9050610a3f816000846001610fc4565b610a48826106c2565b600083815260046020908152604080832080546001600160a01b03199081169091556001600160a01b0385168085526003845282852080546000190190558785526002909352818420805490911690555192935084927fddf252ad1be2c89b69c2b068fc378daa952ba7f163c4a11628f55a4df523b3ef908390a45050565b600080610ad3836106c2565b9050806001600160a01b0316846001600160a01b03161480610afa5750610afa8185610926565b80610b1e5750836001600160a01b0316610b13846104b5565b6001600160a01b0316145b949350505050565b826001600160a01b0316610b39826106c2565b6001600160a01b031614610b5f5760405162461bcd60e51b8152600401610550906115b4565b6001600160a01b038216610bc15760405162461bcd60e51b8152602060048201526024808201527f4552433732313a207472616e7366657220746f20746865207a65726f206164646044820152637265737360e01b6064820152608401610550565b610bce8383836001610fc4565b826001600160a01b0316610be1826106c2565b6001600160a01b031614610c075760405162461bcd60e51b8152600401610550906115b4565b600081815260046020908152604080832080546001600160a01b03199081169091556001600160a01b0387811680865260038552838620805460001901905590871680865283862080546001019055868652600290945282852080549092168417909155905184937fddf252ad1be2c89b69c2b068fc378daa952ba7f163c4a11628f55a4df523b3ef91a4505050565b6001600160a01b038216610ced5760405162461bcd60e51b815260206004820181905260248201527f4552433732313a206d696e7420746f20746865207a65726f20616464726573736044820152606401610550565b6000818152600260205260409020546001600160a01b031615610d525760405162461bcd60e51b815260206004820152601c60248201527f4552433732313a20746f6b656e20616c7265616479206d696e746564000000006044820152606401610550565b610d60600083836001610fc4565b6000818152600260205260409020546001600160a01b031615610dc55760405162461bcd60e51b815260206004820152601c60248201527f4552433732313a20746f6b656e20616c7265616479206d696e746564000000006044820152606401610550565b6001600160a01b038216600081815260036020908152604080832080546001019055848352600290915280822080546001600160a01b0319168417905551839291907fddf252ad1be2c89b69c2b068fc378daa952ba7f163c4a11628f55a4df523b3ef908290a45050565b610e3b848484610b26565b610e478484848461104c565b6107f45760405162461bcd60e51b8152600401610550906115f9565b816001600160a01b0316836001600160a01b031603610ec45760405162461bcd60e51b815260206004820152601960248201527f4552433732313a20617070726f766520746f2063616c6c6572000000000000006044820152606401610550565b6001600160a01b03838116600081815260056020908152604080832094871680845294825291829020805460ff191686151590811790915591519182527f17307eab39ab6107e8899845ad3d59bd9653f200f220920489ca2b5937696c31910160405180910390a3505050565b60606000610f3e8361114d565b600101905060008167ffffffffffffffff811115610f5e57610f5e6113b1565b6040519080825280601f01601f191660200182016040528015610f88576020820181803683370190505b5090508181016020015b600019016f181899199a1a9b1b9c1cb0b131b232b360811b600a86061a8153600a8504945084610f9257509392505050565b60018111156107f4576001600160a01b0384161561100a576001600160a01b038416600090815260036020526040812080548392906110049084906115a1565b90915550505b6001600160a01b038316156107f4576001600160a01b0383166000908152600360205260408120805483929061104190849061164b565b909155505050505050565b60006001600160a01b0384163b1561114257604051630a85bd0160e11b81526001600160a01b0385169063150b7a029061109090339089908890889060040161165e565b6020604051808303816000875af19250505080156110cb575060408051601f3d908101601f191682019092526110c89181019061169b565b60015b611128573d8080156110f9576040519150601f19603f3d011682016040523d82523d6000602084013e6110fe565b606091505b5080516000036111205760405162461bcd60e51b8152600401610550906115f9565b805181602001fd5b6001600160e01b031916630a85bd0160e11b149050610b1e565b506001949350505050565b60008072184f03e93ff9f4daa797ed6e38ed64bf6a1f0160401b831061118c5772184f03e93ff9f4daa797ed6e38ed64bf6a1f0160401b830492506040015b6d04ee2d6d415b85acef810000000083106111b8576d04ee2d6d415b85acef8100000000830492506020015b662386f26fc1000083106111d657662386f26fc10000830492506010015b6305f5e10083106111ee576305f5e100830492506008015b612710831061120257612710830492506004015b60648310611214576064830492506002015b600a831061041d5760010192915050565b6001600160e01b0319811681146109b357600080fd5b60006020828403121561124d57600080fd5b813561086781611225565b60005b8381101561127357818101518382015260200161125b565b50506000910152565b60008151808452611294816020860160208601611258565b601f01601f19169290920160200192915050565b602081526000610867602083018461127c565b6000602082840312156112cd57600080fd5b5035919050565b6001600160a01b03811681146109b357600080fd5b600080604083850312156112fc57600080fd5b8235611307816112d4565b946020939093013593505050565b60008060006060848603121561132a57600080fd5b8335611335816112d4565b92506020840135611345816112d4565b929592945050506040919091013590565b60006020828403121561136857600080fd5b8135610867816112d4565b6000806040838503121561138657600080fd5b8235611391816112d4565b9150602083013580151581146113a657600080fd5b809150509250929050565b634e487b7160e01b600052604160045260246000fd5b600080600080608085870312156113dd57600080fd5b84356113e8816112d4565b935060208501356113f8816112d4565b925060408501359150606085013567ffffffffffffffff8082111561141c57600080fd5b818701915087601f83011261143057600080fd5b813581811115611442576114426113b1565b604051601f8201601f19908116603f0116810190838211818310171561146a5761146a6113b1565b816040528281528a602084870101111561148357600080fd5b82602086016020830137600060208483010152809550505050505092959194509250565b600080604083850312156114ba57600080fd5b82356114c5816112d4565b915060208301356113a6816112d4565b600181811c908216806114e957607f821691505b60208210810361150957634e487b7160e01b600052602260045260246000fd5b50919050565b6020808252602d908201527f4552433732313a2063616c6c6572206973206e6f7420746f6b656e206f776e6560408201526c1c881bdc88185c1c1c9bdd9959609a1b606082015260800190565b6000835161156e818460208801611258565b835190830190611582818360208801611258565b01949350505050565b634e487b7160e01b600052601160045260246000fd5b8181038181111561041d5761041d61158b565b60208082526025908201527f4552433732313a207472616e736665722066726f6d20696e636f72726563742060408201526437bbb732b960d91b606082015260800190565b60208082526032908201527f4552433732313a207472616e7366657220746f206e6f6e20455243373231526560408201527131b2b4bb32b91034b6b83632b6b2b73a32b960711b606082015260800190565b8082018082111561041d5761041d61158b565b6001600160a01b03858116825284166020820152604081018390526080606082018190526000906116919083018461127c565b9695505050505050565b6000602082840312156116ad57600080fd5b81516108678161122556fea2646970667358221220112a204150ded68325e8e480ca77c4b65aabadef74507015a9980914b068fdb964736f6c63430008110033",
    "linkReferences": {}
  },
  "methodIdentifiers": {
    "airdropBatch(address,uint256)": "8045cb0f"
  },
  "id": 27
}