{
  "abi": [
    {
      "inputs": [
        {
          "internalType": "address payable",
          "name": "_randomContract",
          "type": "address"
        }
      ],
      "stateMutability": "nonpayable",
      "type": "constructor"
    },
    {
      "anonymous": false,
      "inputs": [
        {
          "indexed": false,
          "internalType": "uint256",
          "name": "",
          "type": "uint256"
        }
      ],
      "name": "displayNumber",
      "type": "event"
    },
    {
      "inputs": [],
      "name": "attackCTF3",
      "outputs": [],
      "stateMutability": "payable",
      "type": "function"
    },
    {
      "inputs": [],
      "name": "randomContract",
      "outputs": [
        {
          "internalType": "contract HowRandomIsRandom",
          "name": "",
          "type": "address"
        }
      ],
      "stateMutability": "view",
      "type": "function"
    },
    {
      "stateMutability": "payable",
      "type": "receive"
    }
  ],
  "bytecode": {
    "object": "0x608060405234801561001057600080fd5b5060405161023b38038061023b83398101604081905261002f91610054565b600080546001600160a01b0319166001600160a01b0392909216919091179055610084565b60006020828403121561006657600080fd5b81516001600160a01b038116811461007d57600080fd5b9392505050565b6101a8806100936000396000f3fe60806040526004361061002d5760003560e01c8063ccf69e9b14610039578063e343e9701461007557600080fd5b3661003457005b600080fd5b34801561004557600080fd5b50600054610059906001600160a01b031681565b6040516001600160a01b03909116815260200160405180910390f35b61007d61007f565b005b6000606461008e600143610129565b6040805191406020830152016040516020818303038152906040528051906020012060001c6100bd9190610150565b60005460405163a5b6ea8f60e01b8152600481018390529192506001600160a01b03169063a5b6ea8f9067016345785d8a0000906024016000604051808303818588803b15801561010d57600080fd5b505af1158015610121573d6000803e3d6000fd5b505050505050565b8181038181111561014a57634e487b7160e01b600052601160045260246000fd5b92915050565b60008261016d57634e487b7160e01b600052601260045260246000fd5b50069056fea264697066735822122058ba34378741ac5a5421ec25983c1f9584ffd6930ba6556032ffe69724621cf164736f6c63430008110033",
    "linkReferences": {}
  },
  "methodIdentifiers": {
    "attackCTF3()": "e343e970",
    "randomContract()": "ccf69e9b"
  },
  "id": 16
}